ARM Linker, 4.1 [Build 894] [Standard][RL-ARM]

==============================================================================

Section Cross References

    system_stm32f10x.o(.text) refers to system_stm32f10x.o(.data) for SystemCoreClock
    lcd19264.o(.text) refers to stm32f10x_gpio.o(.text) for GPIO_ResetBits
    lcd19264.o(.text) refers to delay.o(.text) for delay_us
    lcd19264.o(.text) refers to stm32f10x_rcc.o(.text) for RCC_APB2PeriphClockCmd
    lcd19264.o(.text) refers to lcd19264.o(.bss) for LCD19264_GRAM
    lcd19264.o(.text) refers to lcd19264.o(.constdata) for screen_code_custom
    keyboard.o(.text) refers to stm32f10x_rcc.o(.text) for RCC_APB2PeriphClockCmd
    keyboard.o(.text) refers to stm32f10x_gpio.o(.text) for GPIO_Init
    keyboard.o(.text) refers to keyboard.o(.data) for backup
    keyboard.o(.text) refers to keyboard.o(.constdata) for KeyCodeMap
    timer.o(.text) refers to stm32f10x_rcc.o(.text) for RCC_APB1PeriphClockCmd
    timer.o(.text) refers to stm32f10x_tim.o(.text) for TIM_TimeBaseInit
    timer.o(.text) refers to misc.o(.text) for NVIC_Init
    timer.o(.text) refers to axis4.o(.text) for Fun_Interpolation
    timer.o(.text) refers to keyboard.o(.text) for KeyScan
    timer.o(.text) refers to axis4.o(.data) for Timer_led
    timer.o(.text) refers to usart.o(.data) for Usart_rx_overtime
    24cxx.o(.text) refers to myiic.o(.text) for IIC_Init
==============================================================================

Removing Unused input sections from the image.

    Removing 24cxx.o(.text), (378 bytes).
    Removing myiic.o(.text), (652 bytes).
    Removing core_cm3.o(.emb_text), (32 bytes).
    Removing diskio.o(.text), (118 bytes).
    Removing ff.o(.text), (7972 bytes).
    Removing ff.o(.data), (6 bytes).
    Removing hw_config.o(i.Enter_LowPowerMode), (12 bytes).
    Removing hw_config.o(i.Leave_LowPowerMode), (32 bytes).
    Removing hw_config.o(i.USB_Configured_LED), (16 bytes).
    Removing hw_config.o(i.USB_NotConfigured_LED), (16 bytes).
    Removing usb_regs.o(i.ClearEPDoubleBuff), (32 bytes).
    Removing usb_regs.o(i.ClearEP_CTR_RX), (28 bytes).
    Removing usb_regs.o(i.ClearEP_CTR_TX), (24 bytes).
    Removing usb_regs.o(i.ClearEP_KIND), (32 bytes).
    Removing usb_regs.o(i.FreeUserBuffer), (64 bytes).
    Removing usb_regs.o(i.GetBTABLE), (12 bytes).
    Removing usb_regs.o(i.GetCNTR), (12 bytes).
    Removing usb_regs.o(i.GetDADDR), (12 bytes).
==============================================================================

Image Symbol Table

    Local Symbols

    Symbol Name                              Value     Ov Type        Size  Object(Section)

    ../../angel/boardlib.s                   0x00000000   Number         0  boardshut.o ABSOLUTE
    ../../angel/boardlib.s                   0x00000000   Number         0  boardinit3.o ABSOLUTE
    ../../angel/boardlib.s                   0x00000000   Number         0  boardinit2.o ABSOLUTE
    ../../angel/boardlib.s                   0x00000000   Number         0  boardinit1.o ABSOLUTE
    ../../angel/dczerorl2.s                  0x00000000   Number         0  __dczerorl2.o ABSOLUTE
    ../../angel/handlers.s                   0x00000000   Number         0  __scatter_zi.o ABSOLUTE
    ../../angel/kernel.s                     0x00000000   Number         0  rtentry.o ABSOLUTE
    ../../angel/kernel.s                     0x00000000   Number         0  rtexit2.o ABSOLUTE
    ../../angel/kernel.s                     0x00000000   Number         0  rtentry2.o ABSOLUTE
    ../../angel/kernel.s                     0x00000000   Number         0  rtentry4.o ABSOLUTE
    ../../angel/kernel.s                     0x00000000   Number         0  rtexit.o ABSOLUTE
    ../../angel/rt.s                         0x00000000   Number         0  rt_fp_status_addr_intlibspace.o ABSOLUTE
    ../../angel/rt.s                         0x00000000   Number         0  rt_errno_addr.o ABSOLUTE
    ../../angel/rt.s                         0x00000000   Number         0  rt_fp_status_addr.o ABSOLUTE
    ../../angel/rt.s                         0x00000000   Number         0  rt_errno_addr_intlibspace.o ABSOLUTE
    ../../angel/rt.s                         0x00000000   Number         0  rt_raise.o ABSOLUTE
    ../../angel/scatter.s                    0x00000000   Number         0  __scatter.o ABSOLUTE
    ../../angel/startup.s                    0x00000000   Number         0  __main.o ABSOLUTE
    ../../angel/sys.s                        0x00000000   Number         0  sys_stackheap_outer.o ABSOLUTE
    ../../angel/sys.s                        0x00000000   Number         0  use_no_semi_2.o ABSOLUTE
    ../../angel/sys.s                        0x00000000   Number         0  indicate_semi.o ABSOLUTE
    ../../angel/sys.s                        0x00000000   Number         0  libspace.o ABSOLUTE
    ../../angel/sys.s                        0x00000000   Number         0  use_no_semi.o ABSOLUTE
    ../../angel/sysapp.c                     0x00000000   Number         0  sys_command.o ABSOLUTE
    ../../angel/sysapp.c                     0x00000000   Number         0  sys_wrch.o ABSOLUTE
    ../../armsys.c                           0x00000000   Number         0  _get_argv_nomalloc.o ABSOLUTE
    ../../armsys.c                           0x00000000   Number         0  argv_veneer.o ABSOLUTE
    ../../armsys.c                           0x00000000   Number         0  argv_veneer.o ABSOLUTE
    ../../armsys.c                           0x00000000   Number         0  no_argv.o ABSOLUTE
    ../../asin.c                             0x00000000   Number         0  asin_x.o ABSOLUTE
    ../../asin.c                             0x00000000   Number         0  asin.o ABSOLUTE
    ../../atan.c                             0x00000000   Number         0  atan.o ABSOLUTE
    ../../atan.c                             0x00000000   Number         0  atan_x.o ABSOLUTE
    ../../cos.c                              0x00000000   Number         0  cos_x.o ABSOLUTE
    ../../cos.c                              0x00000000   Number         0  cos.o ABSOLUTE
    ../../cos_i.c                            0x00000000   Number         0  cos_i.o ABSOLUTE
    ../../d2f.s                              0x00000000   Number         0  d2f.o ABSOLUTE
    ../../daddsub.s                          0x00000000   Number         0  daddsub_clz.o ABSOLUTE
    ../../dcheck1.s                          0x00000000   Number         0  dcheck1.o ABSOLUTE
    ../../dcmpi.s                            0x00000000   Number         0  dcmpi.o ABSOLUTE
    ../../ddiv.s                             0x00000000   Number         0  ddiv.o ABSOLUTE
    ../../dfix.s                             0x00000000   Number         0  dfix.o ABSOLUTE
    ../../dfixu.s                            0x00000000   Number         0  dfixu.o ABSOLUTE
    ../../dflt.s                             0x00000000   Number         0  dflt_clz.o ABSOLUTE
    ../../dleqf.s                            0x00000000   Number         0  dleqf.o ABSOLUTE
    ../../dmul.s                             0x00000000   Number         0  dmul.o ABSOLUTE
    ../../dnaninf.s                          0x00000000   Number         0  dnaninf.o ABSOLUTE
    ../../dretinf.s                          0x00000000   Number         0  dretinf.o ABSOLUTE
    ../../drleqf.s                           0x00000000   Number         0  drleqf.o ABSOLUTE
    ../../dsqrt.s                            0x00000000   Number         0  dsqrt_noumaal.o ABSOLUTE
    ../../dunder.c                           0x00000000   Number         0  dunder.o ABSOLUTE
    ../../f2d.s                              0x00000000   Number         0  f2d.o ABSOLUTE
    ../../faddsub.s                          0x00000000   Number         0  faddsub_clz.o ABSOLUTE
    ../../fcmpi.s                            0x00000000   Number         0  fcmpi.o ABSOLUTE
    ../../fdiv.s                             0x00000000   Number         0  fdiv.o ABSOLUTE
    ../../fenv.c                             0x00000000   Number         0  _rserrno.o ABSOLUTE
    ../../feqf.s                             0x00000000   Number         0  feqf.o ABSOLUTE
    ../../ffix.s                             0x00000000   Number         0  ffix.o ABSOLUTE
    ../../ffixu.s                            0x00000000   Number         0  ffixu.o ABSOLUTE
    ../../fflt.s                             0x00000000   Number         0  fflt_clz.o ABSOLUTE
    ../../fleqf.s                            0x00000000   Number         0  fleqf.o ABSOLUTE
    ../../fmul.s                             0x00000000   Number         0  fmul.o ABSOLUTE
    ../../fnaninf.s                          0x00000000   Number         0  fnaninf.o ABSOLUTE
    ../../fpclassify.c                       0x00000000   Number         0  fpclassify.o ABSOLUTE
    ../../fpinit.s                           0x00000000   Number         0  fpinit.o ABSOLUTE
    ../../fretinf.s                          0x00000000   Number         0  fretinf.o ABSOLUTE
    ../../frleqf.s                           0x00000000   Number         0  frleqf.o ABSOLUTE
    ../../heapalloc.c                        0x00000000   Number         0  hrguard.o ABSOLUTE
    ../../heapaux.c                          0x00000000   Number         0  heapauxi.o ABSOLUTE
    ../../libinit.s                          0x00000000   Number         0  libshutdown.o ABSOLUTE
    ../../libinit.s                          0x00000000   Number         0  libinit.o ABSOLUTE
    ../../libinit.s                          0x00000000   Number         0  libshutdown2.o ABSOLUTE
    ../../libinit.s                          0x00000000   Number         0  libinit2.o ABSOLUTE
    ../../memcpset.s                         0x00000000   Number         0  rt_memclr.o ABSOLUTE
    ../../memcpset.s                         0x00000000   Number         0  rt_memcpy_v6.o ABSOLUTE
    ../../memcpset.s                         0x00000000   Number         0  rt_memcpy_w.o ABSOLUTE
    ../../memcpset.s                         0x00000000   Number         0  rt_memclr_w.o ABSOLUTE
    ../../misc.s                             0x00000000   Number         0  printf_stubs.o ABSOLUTE
    ../../poly.c                             0x00000000   Number         0  poly.o ABSOLUTE
    ../../printf.c                           0x00000000   Number         0  noretval__2printf.o ABSOLUTE
    ../../printf.c                           0x00000000   Number         0  __2printf.o ABSOLUTE
    ../../printf.c                           0x00000000   Number         0  _printf_hex_int.o ABSOLUTE
    ../../printf.c                           0x00000000   Number         0  _printf_hex_int_ptr.o ABSOLUTE
    ../../printf.c                           0x00000000   Number         0  __printf_flags_ss_wp.o ABSOLUTE
    ../../printf.c                           0x00000000   Number         0  __printf_nopercent.o ABSOLUTE
    ../../printf.c                           0x00000000   Number         0  _printf_hex_int_ll_ptr.o ABSOLUTE
    ../../printf.c                           0x00000000   Number         0  _printf_hex_int_ll.o ABSOLUTE
    ../../printf.c                           0x00000000   Number         0  _printf_char_common.o ABSOLUTE
    ../../printf.c                           0x00000000   Number         0  __printf_ss_wp.o ABSOLUTE
    ../../printf.c                           0x00000000   Number         0  _printf_hex_ll.o ABSOLUTE
    ../../printf.c                           0x00000000   Number         0  _printf_hex_ll_ptr.o ABSOLUTE
    ../../printf.c                           0x00000000   Number         0  __printf_flags.o ABSOLUTE
    ../../printf.c                           0x00000000   Number         0  _printf_hex_ptr.o ABSOLUTE
    ../../printf.c                           0x00000000   Number         0  __printf_ss.o ABSOLUTE
    ../../printf.c                           0x00000000   Number         0  __printf_flags_ss.o ABSOLUTE
    ../../printf.c                           0x00000000   Number         0  __printf_wp.o ABSOLUTE
    ../../printf.c                           0x00000000   Number         0  __printf_flags_wp.o ABSOLUTE
    ../../printf.c                           0x00000000   Number         0  _printf_char_file.o ABSOLUTE
    ../../printf.c                           0x00000000   Number         0  _printf_dec.o ABSOLUTE
    ../../printf.c                           0x00000000   Number         0  _printf_pad.o ABSOLUTE
    ../../printf.c                           0x00000000   Number         0  __printf.o ABSOLUTE
    ../../printf.c                           0x00000000   Number         0  _printf_intcommon.o ABSOLUTE
    ../../printf_percent.s                   0x00000000   Number         0  _printf_percent_end.o ABSOLUTE
    ../../printf_percent.s                   0x00000000   Number         0  _printf_percent.o ABSOLUTE
    ../../printf_percent.s                   0x00000000   Number         0  _printf_d.o ABSOLUTE
    ../../printf_percent.s                   0x00000000   Number         0  _printf_x.o ABSOLUTE
    ../../retnan.s                           0x00000000   Number         0  retnan.o ABSOLUTE
    ../../rred.c                             0x00000000   Number         0  rred.o ABSOLUTE
    ../../scalbn.s                           0x00000000   Number         0  scalbn.o ABSOLUTE
    ../../signal.c                           0x00000000   Number         0  defsig_segv_inner.o ABSOLUTE
    ../../signal.c                           0x00000000   Number         0  defsig_other.o ABSOLUTE
    ../../signal.c                           0x00000000   Number         0  defsig_rtred_inner.o ABSOLUTE
    ../../signal.c                           0x00000000   Number         0  defsig_cppl_inner.o ABSOLUTE
    ../../signal.c                           0x00000000   Number         0  defsig_fpe_inner.o ABSOLUTE
    ../../signal.c                           0x00000000   Number         0  defsig_rtmem_inner.o ABSOLUTE
    ../../signal.c                           0x00000000   Number         0  defsig_abrt_inner.o ABSOLUTE
    ../../signal.c                           0x00000000   Number         0  defsig_general.o ABSOLUTE
    ../../signal.c                           0x00000000   Number         0  defsig_pvfn_inner.o ABSOLUTE
    ../../signal.c                           0x00000000   Number         0  __raise.o ABSOLUTE
    ../../signal.c                           0x00000000   Number         0  defsig_exit.o ABSOLUTE
    ../../signal.c                           0x00000000   Number         0  defsig_rtmem_formal.o ABSOLUTE
    ../../signal.c                           0x00000000   Number         0  defsig_stak_inner.o ABSOLUTE
    ../../signal.c                           0x00000000   Number         0  defsig_rtmem_outer.o ABSOLUTE
    ../../signal.s                           0x00000000   Number         0  defsig.o ABSOLUTE
    ../../sin.c                              0x00000000   Number         0  sin.o ABSOLUTE
    ../../sin.c                              0x00000000   Number         0  sin_x.o ABSOLUTE
    ../../sin_i.c                            0x00000000   Number         0  sin_i_x.o ABSOLUTE
    ../../sin_i.c                            0x00000000   Number         0  sin_i.o ABSOLUTE
    ../../sqrt.c                             0x00000000   Number         0  sqrt.o ABSOLUTE
    ../../sqrt.c                             0x00000000   Number         0  sqrt_x.o ABSOLUTE
    ../../stdio.c                            0x00000000   Number         0  ferror_locked.o ABSOLUTE
    ../../stdio.c                            0x00000000   Number         0  ferror.o ABSOLUTE
    ../../stdlib.c                           0x00000000   Number         0  exit.o ABSOLUTE
    ../../trapv.s                            0x00000000   Number         0  trapv.o ABSOLUTE
    ../../usenofp.s                          0x00000000   Number         0  usenofp.o ABSOLUTE
    ..\CORE\core_cm3.c                       0x00000000   Number         0  core_cm3.o ABSOLUTE
    ..\CORE\startup_stm32f10x_hd.s           0x00000000   Number         0  startup_stm32f10x_hd.o ABSOLUTE
    ..\HARDWARE\24CXX\24cxx.c                0x00000000   Number         0  24cxx.o ABSOLUTE
    ..\HARDWARE\ADC\adc.c                    0x00000000   Number         0  adc.o ABSOLUTE
    ..\HARDWARE\DMA\DMA.c                    0x00000000   Number         0  dma.o ABSOLUTE
    ..\HARDWARE\FLASH\flash.c                0x00000000   Number         0  flash.o ABSOLUTE
    ..\HARDWARE\FSMC\FSMC.c                  0x00000000   Number         0  fsmc.o ABSOLUTE
    ..\HARDWARE\IIC\myiic.c                  0x00000000   Number         0  myiic.o ABSOLUTE
    ..\HARDWARE\KEYBOARD\keyboard.c          0x00000000   Number         0  keyboard.o ABSOLUTE
    ..\HARDWARE\LCD19264\LCD19264.c          0x00000000   Number         0  lcd19264.o ABSOLUTE
    ..\HARDWARE\REMOTE\remote.c              0x00000000   Number         0  remote.o ABSOLUTE
    ..\HARDWARE\SPI\spi.c                    0x00000000   Number         0  spi.o ABSOLUTE
    ..\HARDWARE\TIMER\timer.c                0x00000000   Number         0  timer.o ABSOLUTE
    ..\HARDWARE\USB\usb_mass.c               0x00000000   Number         0  usb_mass.o ABSOLUTE
    ..\STM32F10x_FWLib\src\misc.c            0x00000000   Number         0  misc.o ABSOLUTE
    ..\STM32F10x_FWLib\src\stm32f10x_adc.c   0x00000000   Number         0  stm32f10x_adc.o ABSOLUTE
    ..\STM32F10x_FWLib\src\stm32f10x_dma.c   0x00000000   Number         0  stm32f10x_dma.o ABSOLUTE
    ..\STM32F10x_FWLib\src\stm32f10x_fsmc.c  0x00000000   Number         0  stm32f10x_fsmc.o ABSOLUTE
    ..\STM32F10x_FWLib\src\stm32f10x_gpio.c  0x00000000   Number         0  stm32f10x_gpio.o ABSOLUTE
    ..\STM32F10x_FWLib\src\stm32f10x_rcc.c   0x00000000   Number         0  stm32f10x_rcc.o ABSOLUTE
    ..\STM32F10x_FWLib\src\stm32f10x_spi.c   0x00000000   Number         0  stm32f10x_spi.o ABSOLUTE
    ..\STM32F10x_FWLib\src\stm32f10x_tim.c   0x00000000   Number         0  stm32f10x_tim.o ABSOLUTE
    ..\STM32F10x_FWLib\src\stm32f10x_usart.c 0x00000000   Number         0  stm32f10x_usart.o ABSOLUTE
    ..\SYSTEM\delay\delay.c                  0x00000000   Number         0  delay.o ABSOLUTE
    ..\SYSTEM\sys\sys.c                      0x00000000   Number         0  sys.o ABSOLUTE
    ..\SYSTEM\usart\usart.c                  0x00000000   Number         0  usart.o ABSOLUTE
    ..\\CORE\\core_cm3.c                     0x00000000   Number         0  core_cm3.o ABSOLUTE
    ..\fatfs\diskio.c                        0x00000000   Number         0  diskio.o ABSOLUTE
    ..\fatfs\ff.c                            0x00000000   Number         0  ff.o ABSOLUTE
    Axis4.c                                  0x00000000   Number         0  axis4.o ABSOLUTE
    Libraries\Mass_Storage\src\hw_config.c   0x00000000   Number         0  hw_config.o ABSOLUTE
    Libraries\Mass_Storage\src\mass_mal.c    0x00000000   Number         0  mass_mal.o ABSOLUTE
    Libraries\Mass_Storage\src\memory.c      0x00000000   Number         0  memory.o ABSOLUTE
    Libraries\Mass_Storage\src\scsi_data.c   0x00000000   Number         0  scsi_data.o ABSOLUTE
    Libraries\Mass_Storage\src\usb_bot.c     0x00000000   Number         0  usb_bot.o ABSOLUTE
    Libraries\Mass_Storage\src\usb_desc.c    0x00000000   Number         0  usb_desc.o ABSOLUTE
    Libraries\Mass_Storage\src\usb_endp.c    0x00000000   Number         0  usb_endp.o ABSOLUTE
    Libraries\Mass_Storage\src\usb_istr.c    0x00000000   Number         0  usb_istr.o ABSOLUTE
    Libraries\Mass_Storage\src\usb_main.c    0x00000000   Number         0  usb_main.o ABSOLUTE
    Libraries\Mass_Storage\src\usb_prop.c    0x00000000   Number         0  usb_prop.o ABSOLUTE
    Libraries\Mass_Storage\src\usb_pwr.c     0x00000000   Number         0  usb_pwr.o ABSOLUTE
    Libraries\Mass_Storage\src\usb_scsi.c    0x00000000   Number         0  usb_scsi.o ABSOLUTE
    Libraries\STM32_USB-FS-Device_Driver\src\usb_core.c 0x00000000   Number         0  usb_core.o ABSOLUTE
    Libraries\STM32_USB-FS-Device_Driver\src\usb_init.c 0x00000000   Number         0  usb_init.o ABSOLUTE
    Libraries\STM32_USB-FS-Device_Driver\src\usb_int.c 0x00000000   Number         0  usb_int.o ABSOLUTE
    Libraries\STM32_USB-FS-Device_Driver\src\usb_mem.c 0x00000000   Number         0  usb_mem.o ABSOLUTE
    Libraries\STM32_USB-FS-Device_Driver\src\usb_regs.c 0x00000000   Number         0  usb_regs.o ABSOLUTE
    Libraries\STM32_USB-FS-Device_Driver\src\usb_sil.c 0x00000000   Number         0  usb_sil.o ABSOLUTE
    dc.s                                     0x00000000   Number         0  dc.o ABSOLUTE
    stm32f10x_it.c                           0x00000000   Number         0  stm32f10x_it.o ABSOLUTE
    system_stm32f10x.c                       0x00000000   Number         0  system_stm32f10x.o ABSOLUTE
    RESET                                    0x08000000   Section      304  startup_stm32f10x_hd.o(RESET)
    !!!main                                  0x08000130   Section        8  __main.o(!!!main)
    !!!scatter                               0x08000138   Section       52  __scatter.o(!!!scatter)
    !!dczerorl2                              0x0800016c   Section       90  __dczerorl2.o(!!dczerorl2)
    !!handler_zi                             0x080001c8   Section       28  __scatter_zi.o(!!handler_zi)
    .ARM.Collect$$_printf_percent$$00000000  0x080001e4   Section        0  _printf_percent.o(.ARM.Collect$$_printf_percent$$00000000)
    .ARM.Collect$$_printf_percent$$00000009  0x080001e4   Section        6  _printf_d.o(.ARM.Collect$$_printf_percent$$00000009)
    .ARM.Collect$$_printf_percent$$0000000C  0x080001ea   Section        6  _printf_x.o(.ARM.Collect$$_printf_percent$$0000000C)
    .ARM.Collect$$_printf_percent$$00000017  0x080001f0   Section        4  _printf_percent_end.o(.ARM.Collect$$_printf_percent$$00000017)
    .ARM.Collect$$libinit$$00000000          0x080001f4   Section        6  libinit.o(.ARM.Collect$$libinit$$00000000)
    .ARM.Collect$$libinit$$00000006          0x080001fa   Section        0  libinit2.o(.ARM.Collect$$libinit$$00000006)
    .ARM.Collect$$libinit$$00000008          0x080001fa   Section        0  libinit2.o(.ARM.Collect$$libinit$$00000008)
    .ARM.Collect$$libinit$$0000000A          0x080001fa   Section        0  libinit2.o(.ARM.Collect$$libinit$$0000000A)
    .ARM.Collect$$libinit$$0000000D          0x080001fa   Section        0  libinit2.o(.ARM.Collect$$libinit$$0000000D)
    .ARM.Collect$$libinit$$0000000F          0x080001fa   Section        0  libinit2.o(.ARM.Collect$$libinit$$0000000F)
    .ARM.Collect$$libinit$$00000011          0x080001fa   Section        0  libinit2.o(.ARM.Collect$$libinit$$00000011)
    .ARM.Collect$$libinit$$00000013          0x080001fa   Section        0  libinit2.o(.ARM.Collect$$libinit$$00000013)
    .ARM.Collect$$libinit$$00000015          0x080001fa   Section        0  libinit2.o(.ARM.Collect$$libinit$$00000015)
    .ARM.Collect$$libinit$$00000017          0x080001fa   Section        0  libinit2.o(.ARM.Collect$$libinit$$00000017)
    .ARM.Collect$$libinit$$00000019          0x080001fa   Section        0  libinit2.o(.ARM.Collect$$libinit$$00000019)
    .ARM.Collect$$libinit$$0000001B          0x080001fa   Section        0  libinit2.o(.ARM.Collect$$libinit$$0000001B)
    .ARM.Collect$$libinit$$0000001D          0x080001fa   Section        0  libinit2.o(.ARM.Collect$$libinit$$0000001D)
    .ARM.Collect$$libinit$$0000001F          0x080001fa   Section        0  libinit2.o(.ARM.Collect$$libinit$$0000001F)
    .ARM.Collect$$libinit$$00000021          0x080001fa   Section        0  libinit2.o(.ARM.Collect$$libinit$$00000021)
    .ARM.Collect$$libinit$$00000028          0x080001fa   Section        0  libinit2.o(.ARM.Collect$$libinit$$00000028)
    .ARM.Collect$$libinit$$0000002A          0x080001fa   Section        0  libinit2.o(.ARM.Collect$$libinit$$0000002A)
    .ARM.Collect$$libinit$$0000002C          0x080001fa   Section        0  libinit2.o(.ARM.Collect$$libinit$$0000002C)
    .ARM.Collect$$libinit$$0000002E          0x080001fa   Section        0  libinit2.o(.ARM.Collect$$libinit$$0000002E)
    .ARM.Collect$$libinit$$0000002F          0x080001fa   Section        2  libinit2.o(.ARM.Collect$$libinit$$0000002F)
    .ARM.Collect$$libshutdown$$00000000      0x080001fc   Section        2  libshutdown.o(.ARM.Collect$$libshutdown$$00000000)
    .ARM.Collect$$libshutdown$$00000003      0x080001fe   Section        0  libshutdown2.o(.ARM.Collect$$libshutdown$$00000003)
    .ARM.Collect$$libshutdown$$00000006      0x080001fe   Section        0  libshutdown2.o(.ARM.Collect$$libshutdown$$00000006)
    .ARM.Collect$$libshutdown$$00000009      0x080001fe   Section        0  libshutdown2.o(.ARM.Collect$$libshutdown$$00000009)
    .ARM.Collect$$libshutdown$$0000000B      0x080001fe   Section        0  libshutdown2.o(.ARM.Collect$$libshutdown$$0000000B)
    .ARM.Collect$$libshutdown$$0000000E      0x080001fe   Section        0  libshutdown2.o(.ARM.Collect$$libshutdown$$0000000E)
    .ARM.Collect$$libshutdown$$0000000F      0x080001fe   Section        2  libshutdown2.o(.ARM.Collect$$libshutdown$$0000000F)
    .ARM.Collect$$rtentry$$00000000          0x08000200   Section        0  rtentry.o(.ARM.Collect$$rtentry$$00000000)
    .ARM.Collect$$rtentry$$00000002          0x08000200   Section        0  rtentry2.o(.ARM.Collect$$rtentry$$00000002)
    .ARM.Collect$$rtentry$$00000004          0x08000200   Section        6  rtentry4.o(.ARM.Collect$$rtentry$$00000004)
    .ARM.Collect$$rtentry$$00000009          0x08000206   Section        0  rtentry2.o(.ARM.Collect$$rtentry$$00000009)
    .ARM.Collect$$rtentry$$0000000A          0x08000206   Section        4  rtentry2.o(.ARM.Collect$$rtentry$$0000000A)
    .ARM.Collect$$rtentry$$0000000C          0x0800020a   Section        0  rtentry2.o(.ARM.Collect$$rtentry$$0000000C)
    .ARM.Collect$$rtentry$$0000000D          0x0800020a   Section        8  rtentry2.o(.ARM.Collect$$rtentry$$0000000D)
    .ARM.Collect$$rtexit$$00000000           0x08000212   Section        2  rtexit.o(.ARM.Collect$$rtexit$$00000000)
    .ARM.Collect$$rtexit$$00000002           0x08000214   Section        0  rtexit2.o(.ARM.Collect$$rtexit$$00000002)
    .ARM.Collect$$rtexit$$00000003           0x08000214   Section        4  rtexit2.o(.ARM.Collect$$rtexit$$00000003)
    .ARM.Collect$$rtexit$$00000004           0x08000218   Section        6  rtexit2.o(.ARM.Collect$$rtexit$$00000004)
    .text                                    0x0800021e   Section        0  stm32f10x_it.o(.text)
    .text                                    0x08000238   Section        0  system_stm32f10x.o(.text)
    SetSysClockTo72                          0x08000239   Thumb Code   192  system_stm32f10x.o(.text)
    SetSysClock                              0x080002f9   Thumb Code     8  system_stm32f10x.o(.text)
    .text                                    0x08000400   Section        0  lcd19264.o(.text)
    .text                                    0x08000654   Section        0  keyboard.o(.text)
    .text                                    0x08000944   Section        0  timer.o(.text)
    .text                                    0x08000a2c   Section        0  adc.o(.text)
    .text                                    0x08000b0c   Section        0  dma.o(.text)
    .text                                    0x08000b58   Section        0  remote.o(.text)
    .text                                    0x08000d88   Section        0  flash.o(.text)
    .text                                    0x080010d8   Section        0  spi.o(.text)
    .text                                    0x08001204   Section        0  fsmc.o(.text)
    .text                                    0x08001a98   Section        0  delay.o(.text)
    .text                                    0x08001b5c   Section        0  sys.o(.text)
    .text                                    0x08001b68   Section        0  usart.o(.text)
    .text                                    0x08001d8c   Section       64  startup_stm32f10x_hd.o(.text)
    .text                                    0x08001dcc   Section        0  misc.o(.text)
    .text                                    0x08001ea8   Section        0  stm32f10x_fsmc.o(.text)
    .text                                    0x080024c0   Section        0  stm32f10x_gpio.o(.text)
    .text                                    0x08002818   Section        0  stm32f10x_rcc.o(.text)
    .text                                    0x08002bb8   Section        0  stm32f10x_usart.o(.text)
    .text                                    0x08002fc4   Section        0  stm32f10x_tim.o(.text)
    TI4_Config                               0x0800344f   Thumb Code   118  stm32f10x_tim.o(.text)
    TI3_Config                               0x080034d7   Thumb Code   114  stm32f10x_tim.o(.text)
    TI2_Config                               0x0800355f   Thumb Code   118  stm32f10x_tim.o(.text)
    TI1_Config                               0x080035e7   Thumb Code   106  stm32f10x_tim.o(.text)
    .text                                    0x08003d74   Section        0  stm32f10x_adc.o(.text)
    .text                                    0x080041b0   Section        0  stm32f10x_dma.o(.text)
    .text                                    0x08004400   Section        0  stm32f10x_spi.o(.text)
    .text                                    0x08004710   Section        0  axis4.o(.text)
    .text                                    0x0800c8c4   Section        0  usb_mass.o(.text)
    .text                                    0x0800c8dc   Section        2  use_no_semi_2.o(.text)
    .text                                    0x0800c8e0   Section        0  noretval__2printf.o(.text)
    .text                                    0x0800c8f8   Section        0  _printf_pad.o(.text)
    .text                                    0x0800c94c   Section        0  _printf_dec.o(.text)
    .text                                    0x0800c9c4   Section        0  _printf_hex_int.o(.text)
    .text                                    0x0800ca20   Section        0  __printf_flags_wp.o(.text)
    .text                                    0x0800cb5c   Section      138  rt_memcpy_v6.o(.text)
    .text                                    0x0800cbe6   Section       68  rt_memclr.o(.text)
    .text                                    0x0800cc2a   Section        0  heapauxi.o(.text)
    .text                                    0x0800cc30   Section        2  use_no_semi.o(.text)
    .text                                    0x0800cc32   Section        0  _rserrno.o(.text)
    .text                                    0x0800cc48   Section        0  _printf_intcommon.o(.text)
    .text                                    0x0800cd00   Section        0  _printf_char_file.o(.text)
    .text                                    0x0800cd24   Section      100  rt_memcpy_w.o(.text)
    .text                                    0x0800cd88   Section       78  rt_memclr_w.o(.text)
    .text                                    0x0800cdd8   Section        8  rt_errno_addr_intlibspace.o(.text)
    .text                                    0x0800cde0   Section        0  _printf_char_common.o(.text)
    _printf_input_char                       0x0800cde1   Thumb Code    10  _printf_char_common.o(.text)
    .text                                    0x0800ce10   Section        0  ferror.o(.text)
    .text                                    0x0800ce18   Section        8  libspace.o(.text)
    .text                                    0x0800ce20   Section       74  sys_stackheap_outer.o(.text)
    .text                                    0x0800ce6a   Section        0  exit.o(.text)
    .text                                    0x0800ce78   Section        8  rt_fp_status_addr_intlibspace.o(.text)
    i.Bot_Abort                              0x0800ce80   Section        0  usb_bot.o(i.Bot_Abort)
    i.ByteSwap                               0x0800cec0   Section        0  usb_regs.o(i.ByteSwap)
    i.CBW_Decode                             0x0800cecc   Section        0  usb_bot.o(i.CBW_Decode)
    i.CTR_HP                                 0x0800d190   Section        0  usb_int.o(i.CTR_HP)
    i.CTR_LP                                 0x0800d244   Section        0  usb_int.o(i.CTR_LP)
    i.ClearDTOG_RX                           0x0800d4a8   Section        0  usb_regs.o(i.ClearDTOG_RX)
    i.ClearDTOG_TX                           0x0800d4d4   Section        0  usb_regs.o(i.ClearDTOG_TX)
    i.Clear_Status_Out                       0x0800d500   Section        0  usb_regs.o(i.Clear_Status_Out)
    i.DataStageIn                            0x0800d520   Section        0  usb_core.o(i.DataStageIn)
    DataStageIn                              0x0800d521   Thumb Code   166  usb_core.o(i.DataStageIn)
    i.DataStageOut                           0x0800d5e0   Section        0  usb_core.o(i.DataStageOut)
    DataStageOut                             0x0800d5e1   Thumb Code   166  usb_core.o(i.DataStageOut)
    i.Data_Setup0                            0x0800d69c   Section        0  usb_core.o(i.Data_Setup0)
    Data_Setup0                              0x0800d69d   Thumb Code   616  usb_core.o(i.Data_Setup0)
    i.EP1_IN_Callback                        0x0800d928   Section        0  usb_endp.o(i.EP1_IN_Callback)
    i.EP2_OUT_Callback                       0x0800d930   Section        0  usb_endp.o(i.EP2_OUT_Callback)
    i.GetEPRxAddr                            0x0800d938   Section        0  usb_regs.o(i.GetEPRxAddr)
    i.GetEPRxCount                           0x0800d958   Section        0  usb_regs.o(i.GetEPRxCount)
    i.GetEPTxAddr                            0x0800d97c   Section        0  usb_regs.o(i.GetEPTxAddr)
    i.Get_Max_Lun                            0x0800d99c   Section        0  usb_prop.o(i.Get_Max_Lun)
    i.Get_SerialNum                          0x0800d9b8   Section        0  hw_config.o(i.Get_SerialNum)
    i.In0_Process                            0x0800da00   Section        0  usb_core.o(i.In0_Process)
    i.Led_Config                             0x0800da70   Section        0  hw_config.o(i.Led_Config)
    i.Led_RW_OFF                             0x0800daa0   Section        0  hw_config.o(i.Led_RW_OFF)
    i.Led_RW_ON                              0x0800dab4   Section        0  hw_config.o(i.Led_RW_ON)
    i.MAL_Config                             0x0800dac8   Section        0  hw_config.o(i.MAL_Config)
    i.MAL_GetStatus                          0x0800dad2   Section        0  mass_mal.o(i.MAL_GetStatus)
    i.MAL_Init                               0x0800daf0   Section        0  mass_mal.o(i.MAL_Init)
    i.MAL_Read                               0x0800db34   Section        0  mass_mal.o(i.MAL_Read)
    i.MAL_Write                              0x0800db60   Section        0  mass_mal.o(i.MAL_Write)
    i.MASS_Data_Setup                        0x0800db88   Section        0  usb_prop.o(i.MASS_Data_Setup)
    i.MASS_GetConfigDescriptor               0x0800dbe8   Section        0  usb_prop.o(i.MASS_GetConfigDescriptor)
    i.MASS_GetDeviceDescriptor               0x0800dbfc   Section        0  usb_prop.o(i.MASS_GetDeviceDescriptor)
    i.MASS_GetStringDescriptor               0x0800dc10   Section        0  usb_prop.o(i.MASS_GetStringDescriptor)
    i.MASS_Get_Interface_Setting             0x0800dc38   Section        0  usb_prop.o(i.MASS_Get_Interface_Setting)
    i.MASS_NoData_Setup                      0x0800dc50   Section        0  usb_prop.o(i.MASS_NoData_Setup)
    i.MASS_Reset                             0x0800dcac   Section        0  usb_prop.o(i.MASS_Reset)
    i.MASS_Status_In                         0x0800dd98   Section        0  usb_prop.o(i.MASS_Status_In)
    i.MASS_Status_Out                        0x0800dd9a   Section        0  usb_prop.o(i.MASS_Status_Out)
    i.MASS_init                              0x0800dd9c   Section        0  usb_prop.o(i.MASS_init)
    i.Mass_Storage_ClearFeature              0x0800dde0   Section        0  usb_prop.o(i.Mass_Storage_ClearFeature)
    i.Mass_Storage_In                        0x0800ddfc   Section        0  usb_bot.o(i.Mass_Storage_In)
    i.Mass_Storage_Out                       0x0800de70   Section        0  usb_bot.o(i.Mass_Storage_Out)
    i.Mass_Storage_SetConfiguration          0x0800df08   Section        0  usb_prop.o(i.Mass_Storage_SetConfiguration)
    i.Mass_Storage_SetDeviceAddress          0x0800df38   Section        0  usb_prop.o(i.Mass_Storage_SetDeviceAddress)
    i.NOP_Process                            0x0800df44   Section        0  usb_core.o(i.NOP_Process)
    i.NoData_Setup0                          0x0800df48   Section        0  usb_core.o(i.NoData_Setup0)
    NoData_Setup0                            0x0800df49   Thumb Code   300  usb_core.o(i.NoData_Setup0)
    i.Out0_Process                           0x0800e088   Section        0  usb_core.o(i.Out0_Process)
    i.PMAToUserBufferCopy                    0x0800e0d8   Section        0  usb_mem.o(i.PMAToUserBufferCopy)
    i.Post0_Process                          0x0800e100   Section        0  usb_core.o(i.Post0_Process)
    i.PowerOn                                0x0800e148   Section        0  usb_pwr.o(i.PowerOn)
    i.Read_Memory                            0x0800e188   Section        0  memory.o(i.Read_Memory)
    i.SCSI_Address_Management                0x0800e294   Section        0  usb_scsi.o(i.SCSI_Address_Management)
    i.SCSI_Format_Cmd                        0x0800e320   Section        0  usb_scsi.o(i.SCSI_Format_Cmd)
    i.SCSI_Inquiry_Cmd                       0x0800e350   Section        0  usb_scsi.o(i.SCSI_Inquiry_Cmd)
    i.SCSI_Invalid_Cmd                       0x0800e3ac   Section        0  usb_scsi.o(i.SCSI_Invalid_Cmd)
    i.SCSI_ModeSense10_Cmd                   0x0800e3f0   Section        0  usb_scsi.o(i.SCSI_ModeSense10_Cmd)
    i.SCSI_ModeSense6_Cmd                    0x0800e404   Section        0  usb_scsi.o(i.SCSI_ModeSense6_Cmd)
    i.SCSI_Read10_Cmd                        0x0800e418   Section        0  usb_scsi.o(i.SCSI_Read10_Cmd)
    i.SCSI_ReadCapacity10_Cmd                0x0800e490   Section        0  usb_scsi.o(i.SCSI_ReadCapacity10_Cmd)
    i.SCSI_ReadFormatCapacity_Cmd            0x0800e52c   Section        0  usb_scsi.o(i.SCSI_ReadFormatCapacity_Cmd)
    i.SCSI_RequestSense_Cmd                  0x0800e5b4   Section        0  usb_scsi.o(i.SCSI_RequestSense_Cmd)
    i.SCSI_Start_Stop_Unit_Cmd               0x0800e5dc   Section        0  usb_scsi.o(i.SCSI_Start_Stop_Unit_Cmd)
    i.SCSI_TestUnitReady_Cmd                 0x0800e5ec   Section        0  usb_scsi.o(i.SCSI_TestUnitReady_Cmd)
    i.SCSI_Verify10_Cmd                      0x0800e624   Section        0  usb_scsi.o(i.SCSI_Verify10_Cmd)
    i.SCSI_Write10_Cmd                       0x0800e664   Section        0  usb_scsi.o(i.SCSI_Write10_Cmd)
    i.SetBTABLE                              0x0800e6dc   Section        0  usb_regs.o(i.SetBTABLE)
    i.SetDeviceAddress                       0x0800e6ec   Section        0  usb_core.o(i.SetDeviceAddress)
    i.SetEPRxAddr                            0x0800e734   Section        0  usb_regs.o(i.SetEPRxAddr)
    i.SetEPRxCount                           0x0800e758   Section        0  usb_regs.o(i.SetEPRxCount)
    i.SetEPRxStatus                          0x0800e7a4   Section        0  usb_regs.o(i.SetEPRxStatus)
    i.SetEPRxValid                           0x0800e7dc   Section        0  usb_regs.o(i.SetEPRxValid)
    i.SetEPTxAddr                            0x0800e808   Section        0  usb_regs.o(i.SetEPTxAddr)
    i.SetEPTxCount                           0x0800e828   Section        0  usb_regs.o(i.SetEPTxCount)
    i.SetEPTxStatus                          0x0800e844   Section        0  usb_regs.o(i.SetEPTxStatus)
    i.SetEPType                              0x0800e87c   Section        0  usb_regs.o(i.SetEPType)
    i.Set_CSW                                0x0800e898   Section        0  usb_bot.o(i.Set_CSW)
    i.Set_Scsi_Sense_Data                    0x0800e8dc   Section        0  usb_scsi.o(i.Set_Scsi_Sense_Data)
    i.Set_System                             0x0800e8e8   Section        0  hw_config.o(i.Set_System)
    i.Set_USBClock                           0x0800e8f4   Section        0  hw_config.o(i.Set_USBClock)
    i.Setup0_Process                         0x0800e908   Section        0  usb_core.o(i.Setup0_Process)
    i.Standard_ClearFeature                  0x0800e9c0   Section        0  usb_core.o(i.Standard_ClearFeature)
    i.Standard_GetConfiguration              0x0800eb08   Section        0  usb_core.o(i.Standard_GetConfiguration)
    i.Standard_GetDescriptorData             0x0800eb34   Section        0  usb_core.o(i.Standard_GetDescriptorData)
    i.Standard_GetInterface                  0x0800eb58   Section        0  usb_core.o(i.Standard_GetInterface)
    i.Standard_GetStatus                     0x0800eb84   Section        0  usb_core.o(i.Standard_GetStatus)
    i.Standard_SetConfiguration              0x0800ec7c   Section        0  usb_core.o(i.Standard_SetConfiguration)
    i.Standard_SetDeviceFeature              0x0800ecc4   Section        0  usb_core.o(i.Standard_SetDeviceFeature)
    i.Standard_SetEndPointFeature            0x0800ecec   Section        0  usb_core.o(i.Standard_SetEndPointFeature)
    i.Standard_SetInterface                  0x0800eda4   Section        0  usb_core.o(i.Standard_SetInterface)
    i.Transfer_Data_Request                  0x0800ee10   Section        0  usb_bot.o(i.Transfer_Data_Request)
    i.USB_Cable_Config                       0x0800ee50   Section        0  hw_config.o(i.USB_Cable_Config)
    i.USB_Disconnect_Config                  0x0800ee74   Section        0  hw_config.o(i.USB_Disconnect_Config)
    i.USB_Init                               0x0800eea0   Section        0  usb_init.o(i.USB_Init)
    i.USB_Interrupts_Config                  0x0800eedc   Section        0  hw_config.o(i.USB_Interrupts_Config)
    i.USB_Istr                               0x0800ef14   Section        0  usb_istr.o(i.USB_Istr)
    i.USB_SIL_Write                          0x0800ef64   Section        0  usb_sil.o(i.USB_SIL_Write)
    i.USB_cable                              0x0800ef92   Section        0  usb_main.o(i.USB_cable)
    i.UserToPMABufferCopy                    0x0800efac   Section        0  usb_mem.o(i.UserToPMABufferCopy)
    i.Write_Memory                           0x0800efe4   Section        0  memory.o(i.Write_Memory)
    i.__ARM_fpclassify                       0x0800f114   Section        0  fpclassify.o(i.__ARM_fpclassify)
    i.__ieee754_rem_pio2                     0x0800f13c   Section        0  rred.o(i.__ieee754_rem_pio2)
    i.__kernel_cos                           0x0800f4c0   Section        0  cos_i.o(i.__kernel_cos)
    i.__kernel_poly                          0x0800f5bc   Section        0  poly.o(i.__kernel_poly)
    i.__kernel_sin                           0x0800f668   Section        0  sin_i.o(i.__kernel_sin)
    i.__mathlib_dbl_underflow                0x0800f754   Section        0  dunder.o(i.__mathlib_dbl_underflow)
    i._is_digit                              0x0800f764   Section        0  __printf_wp.o(i._is_digit)
    i.asin                                   0x0800f774   Section        0  asin.o(i.asin)
    i.atan                                   0x0800f9f0   Section        0  atan.o(i.atan)
    i.cos                                    0x0800fc14   Section        0  cos.o(i.cos)
    i.sin                                    0x0800fcc0   Section        0  sin.o(i.sin)
    i.sqrt                                   0x0800fd70   Section        0  sqrt.o(i.sqrt)
    x$fpl$d2f                                0x0800fdbc   Section       98  d2f.o(x$fpl$d2f)
    x$fpl$dadd                               0x0800fe20   Section      336  daddsub_clz.o(x$fpl$dadd)
    _dadd1                                   0x0800fe31   Thumb Code     0  daddsub_clz.o(x$fpl$dadd)
    x$fpl$dcheck1                            0x0800ff70   Section       16  dcheck1.o(x$fpl$dcheck1)
    x$fpl$dcmpinf                            0x0800ff80   Section       24  dcmpi.o(x$fpl$dcmpinf)
    x$fpl$ddiv                               0x0800ff98   Section      688  ddiv.o(x$fpl$ddiv)
    ddiv_entry                               0x0800ff9f   Thumb Code     0  ddiv.o(x$fpl$ddiv)
    x$fpl$dfix                               0x08010248   Section       94  dfix.o(x$fpl$dfix)
    x$fpl$dfixu                              0x080102a8   Section       90  dfixu.o(x$fpl$dfixu)
    x$fpl$dflt                               0x08010302   Section       46  dflt_clz.o(x$fpl$dflt)
    x$fpl$dfltu                              0x08010330   Section       38  dflt_clz.o(x$fpl$dfltu)
    x$fpl$dleqf                              0x08010358   Section      120  dleqf.o(x$fpl$dleqf)
    x$fpl$dmul                               0x080103d0   Section      340  dmul.o(x$fpl$dmul)
    x$fpl$dnaninf                            0x08010524   Section      156  dnaninf.o(x$fpl$dnaninf)
    x$fpl$dretinf                            0x080105c0   Section       12  dretinf.o(x$fpl$dretinf)
    x$fpl$drleqf                             0x080105cc   Section      108  drleqf.o(x$fpl$drleqf)
    x$fpl$drsb                               0x08010638   Section       22  daddsub_clz.o(x$fpl$drsb)
    x$fpl$dsqrt                              0x08010650   Section      460  dsqrt_noumaal.o(x$fpl$dsqrt)
    x$fpl$dsub                               0x0801081c   Section      468  daddsub_clz.o(x$fpl$dsub)
    _dsub1                                   0x0801082d   Thumb Code     0  daddsub_clz.o(x$fpl$dsub)
    x$fpl$f2d                                0x080109f0   Section       86  f2d.o(x$fpl$f2d)
    x$fpl$fadd                               0x08010a48   Section      196  faddsub_clz.o(x$fpl$fadd)
    _fadd1                                   0x08010a57   Thumb Code     0  faddsub_clz.o(x$fpl$fadd)
    x$fpl$fcmpinf                            0x08010b0c   Section       24  fcmpi.o(x$fpl$fcmpinf)
    x$fpl$fdiv                               0x08010b24   Section      388  fdiv.o(x$fpl$fdiv)
    _fdiv1                                   0x08010b25   Thumb Code     0  fdiv.o(x$fpl$fdiv)
    x$fpl$feqf                               0x08010ca8   Section      104  feqf.o(x$fpl$feqf)
    x$fpl$ffix                               0x08010d10   Section       54  ffix.o(x$fpl$ffix)
    x$fpl$ffixu                              0x08010d48   Section       62  ffixu.o(x$fpl$ffixu)
    x$fpl$fflt                               0x08010d88   Section       48  fflt_clz.o(x$fpl$fflt)
    x$fpl$ffltu                              0x08010db8   Section       38  fflt_clz.o(x$fpl$ffltu)
    x$fpl$fleqf                              0x08010de0   Section      104  fleqf.o(x$fpl$fleqf)
    x$fpl$fmul                               0x08010e48   Section      258  fmul.o(x$fpl$fmul)
    x$fpl$fnaninf                            0x08010f4a   Section      140  fnaninf.o(x$fpl$fnaninf)
    x$fpl$fpinit                             0x08010fd6   Section       14  fpinit.o(x$fpl$fpinit)
    x$fpl$fretinf                            0x08010fe4   Section       10  fretinf.o(x$fpl$fretinf)
    x$fpl$frleqf                             0x08010fee   Section       98  frleqf.o(x$fpl$frleqf)
    x$fpl$frsb                               0x08011050   Section       20  faddsub_clz.o(x$fpl$frsb)
    x$fpl$fsub                               0x08011064   Section      234  faddsub_clz.o(x$fpl$fsub)
    _fsub1                                   0x08011073   Thumb Code     0  faddsub_clz.o(x$fpl$fsub)
    x$fpl$retnan                             0x0801114e   Section      100  retnan.o(x$fpl$retnan)
    x$fpl$scalbn                             0x080111b2   Section       92  scalbn.o(x$fpl$scalbn)
    x$fpl$trapveneer                         0x0801120e   Section       48  trapv.o(x$fpl$trapveneer)
    .constdata                               0x0801123e   Section     1536  lcd19264.o(.constdata)
    x$fpl$usenofp                            0x0801123e   Section        0  usenofp.o(x$fpl$usenofp)
    .constdata                               0x0801183e   Section       25  keyboard.o(.constdata)
    .constdata                               0x08011858   Section       66  fsmc.o(.constdata)
    .constdata                               0x0801189a   Section     2960  axis4.o(.constdata)
    .constdata                               0x0801242a   Section      146  usb_desc.o(.constdata)
    .constdata                               0x080124bc   Section       40  _printf_hex_int.o(.constdata)
    uc_hextab                                0x080124bc   Data          20  _printf_hex_int.o(.constdata)
    lc_hextab                                0x080124d0   Data          20  _printf_hex_int.o(.constdata)
    .constdata                               0x080124e4   Section       17  __printf_flags_wp.o(.constdata)
    maptable                                 0x080124e4   Data          17  __printf_flags_wp.o(.constdata)
    .constdata                               0x080124f8   Section       80  asin.o(.constdata)
    pS                                       0x080124f8   Data          48  asin.o(.constdata)
    qS                                       0x08012528   Data          32  asin.o(.constdata)
    .constdata                               0x08012548   Section      152  atan.o(.constdata)
    atanhi                                   0x08012548   Data          32  atan.o(.constdata)
    atanlo                                   0x08012568   Data          32  atan.o(.constdata)
    aTodd                                    0x08012588   Data          40  atan.o(.constdata)
    aTeven                                   0x080125b0   Data          48  atan.o(.constdata)
    .constdata                               0x080125e0   Section       48  cos_i.o(.constdata)
    C                                        0x080125e0   Data          48  cos_i.o(.constdata)
    .constdata                               0x08012610   Section      200  rred.o(.constdata)
    pio2s                                    0x08012610   Data          48  rred.o(.constdata)
    twooverpi                                0x08012640   Data         152  rred.o(.constdata)
    .constdata                               0x080126d8   Section       40  sin_i.o(.constdata)
    S                                        0x080126d8   Data          40  sin_i.o(.constdata)
    .data                                    0x20000000   Section       20  system_stm32f10x.o(.data)
    .data                                    0x20000014   Section       76  keyboard.o(.data)
    backup                                   0x2000002d   Data          25  keyboard.o(.data)
    keyout                                   0x20000046   Data           1  keyboard.o(.data)
    keybuf                                   0x20000047   Data          25  keyboard.o(.data)
    .data                                    0x20000060   Section       10  remote.o(.data)
    .data                                    0x2000006c   Section        4  flash.o(.data)
    .data                                    0x20000070   Section       58  fsmc.o(.data)
    pulsenumsumlast                          0x200000a0   Data           2  fsmc.o(.data)
    PulseNum1                                0x200000a2   Data           2  fsmc.o(.data)
    PulseNum2                                0x200000a4   Data           2  fsmc.o(.data)
    PulseWid1                                0x200000a6   Data           2  fsmc.o(.data)
    PulseWid2                                0x200000a8   Data           2  fsmc.o(.data)
    .data                                    0x200000aa   Section        4  delay.o(.data)
    fac_us                                   0x200000aa   Data           1  delay.o(.data)
    fac_ms                                   0x200000ac   Data           2  delay.o(.data)
    .data                                    0x200000b0   Section        8  usart.o(.data)
    .data                                    0x200000b8   Section       20  stm32f10x_rcc.o(.data)
    APBAHBPrescTable                         0x200000b8   Data          16  stm32f10x_rcc.o(.data)
    ADCPrescTable                            0x200000c8   Data           4  stm32f10x_rcc.o(.data)
    .data                                    0x200000cc   Section      529  axis4.o(.data)
    .data                                    0x200002de   Section        4  usb_int.o(.data)
    .data                                    0x200002e4   Section       62  usb_istr.o(.data)
    .data                                    0x20000322   Section        4  usb_core.o(.data)
    .data                                    0x20000328   Section       20  usb_init.o(.data)
    .data                                    0x2000033c   Section      144  usb_prop.o(.data)
    .data                                    0x200003cc   Section       16  mass_mal.o(.data)
    id                                       0x200003d0   Data           4  mass_mal.o(.data)
    .data                                    0x200003dc   Section       12  usb_bot.o(.data)
    .data                                    0x200003e8   Section       26  usb_desc.o(.data)
    .data                                    0x20000404   Section        7  usb_pwr.o(.data)
    .data                                    0x2000040c   Section       36  memory.o(.data)
    Offset                                   0x20000418   Data           4  memory.o(.data)
    Length                                   0x2000041c   Data           4  memory.o(.data)
    W_Offset                                 0x20000420   Data           4  memory.o(.data)
    W_Length                                 0x20000424   Data           4  memory.o(.data)
    .data                                    0x20000430   Section      163  scsi_data.o(.data)
    .bss                                     0x200004d4   Section     1536  lcd19264.o(.bss)
    .bss                                     0x20000ad4   Section      100  usart.o(.bss)
    .bss                                     0x20000b38   Section      214  axis4.o(.bss)
    .bss                                     0x20000c10   Section       28  usb_init.o(.bss)
    .bss                                     0x20000c2c   Section      112  usb_bot.o(.bss)
    .bss                                     0x20000c9c   Section     4096  memory.o(.bss)
    .bss                                     0x20001c9c   Section       96  libspace.o(.bss)
    HEAP                                     0x20001d00   Section     4096  startup_stm32f10x_hd.o(HEAP)
    Heap_Mem                                 0x20001d00   Data        4096  startup_stm32f10x_hd.o(HEAP)
    STACK                                    0x20002d00   Section    32768  startup_stm32f10x_hd.o(STACK)
    Stack_Mem                                0x20002d00   Data       32768  startup_stm32f10x_hd.o(STACK)
    __initial_sp                             0x2000ad00   Data           0  startup_stm32f10x_hd.o(STACK)

    Global Symbols

    Symbol Name                              Value     Ov Type        Size  Object(Section)

    BuildAttributes$$THM_ISAv4$P$D$K$B$S$PE$A:L22UL41UL21$X:L11$S22US41US21$IEEE1$IW$USESV6$~STKCKD$USESV7$~SHL$OTIME$ROPI$IEEEX$EBA8$UX$STANDARDLIB$REQ8$PRES8$EABIv2 0x00000000   Number         0  anon$$obj.o ABSOLUTE
    __ARM_use_no_argv                        0x00000000   Number         0  axis4.o ABSOLUTE
    _printf_flags                            0x00000000   Number         0  printf_stubs.o ABSOLUTE
    _printf_return_value                     0x00000000   Number         0  printf_stubs.o ABSOLUTE
    _printf_sizespec                         0x00000000   Number         0  printf_stubs.o ABSOLUTE
    _printf_widthprec                        0x00000000   Number         0  printf_stubs.o ABSOLUTE
    __ARM_exceptions_init                     - Undefined Weak Reference
    __alloca_initialize                       - Undefined Weak Reference
    __cpp_initialize__aeabi_                  - Undefined Weak Reference
    __cxa_finalize                            - Undefined Weak Reference
    __rt_locale                               - Undefined Weak Reference
    __sigvec_lookup                           - Undefined Weak Reference
    _atexit_init                              - Undefined Weak Reference
    _call_atexit_fns                          - Undefined Weak Reference
    _clock_init                               - Undefined Weak Reference
    _fp_trap_init                             - Undefined Weak Reference
    _fp_trap_shutdown                         - Undefined Weak Reference
    _get_lc_collate                           - Undefined Weak Reference
    _get_lc_ctype                             - Undefined Weak Reference
    _get_lc_monetary                          - Undefined Weak Reference
    _get_lc_numeric                           - Undefined Weak Reference
    _get_lc_time                              - Undefined Weak Reference
    _getenv_init                              - Undefined Weak Reference
    _handle_redirection                       - Undefined Weak Reference
    _init_alloc                               - Undefined Weak Reference
    _init_user_alloc                          - Undefined Weak Reference
    _initio                                   - Undefined Weak Reference
    _mutex_acquire                            - Undefined Weak Reference
    _mutex_release                            - Undefined Weak Reference
    _printf_truncate_signed                   - Undefined Weak Reference
    _printf_truncate_unsigned                 - Undefined Weak Reference
    _rand_init                                - Undefined Weak Reference
    _signal_finish                            - Undefined Weak Reference
    _signal_init                              - Undefined Weak Reference
    _terminate_alloc                          - Undefined Weak Reference
    _terminate_user_alloc                     - Undefined Weak Reference
    _terminateio                              - Undefined Weak Reference
    __Vectors_Size                           0x00000130   Number         0  startup_stm32f10x_hd.o ABSOLUTE
    __Vectors                                0x08000000   Data           4  startup_stm32f10x_hd.o(RESET)
    __Vectors_End                            0x08000130   Data           0  startup_stm32f10x_hd.o(RESET)
    __main                                   0x08000131   Thumb Code     8  __main.o(!!!main)
    __scatterload                            0x08000139   Thumb Code     0  __scatter.o(!!!scatter)
    __scatterload_rt2                        0x08000139   Thumb Code    44  __scatter.o(!!!scatter)
    __scatterload_rt2_thumb_only             0x08000139   Thumb Code     0  __scatter.o(!!!scatter)
    __scatterload_null                       0x08000147   Thumb Code     0  __scatter.o(!!!scatter)
    __decompress                             0x0800016d   Thumb Code    90  __dczerorl2.o(!!dczerorl2)
    __decompress1                            0x0800016d   Thumb Code     0  __dczerorl2.o(!!dczerorl2)
    __scatterload_zeroinit                   0x080001c9   Thumb Code    28  __scatter_zi.o(!!handler_zi)
    _printf_d                                0x080001e5   Thumb Code     0  _printf_d.o(.ARM.Collect$$_printf_percent$$00000009)
    _printf_percent                          0x080001e5   Thumb Code     0  _printf_percent.o(.ARM.Collect$$_printf_percent$$00000000)
    _printf_x                                0x080001eb   Thumb Code     0  _printf_x.o(.ARM.Collect$$_printf_percent$$0000000C)
    _printf_percent_end                      0x080001f1   Thumb Code     0  _printf_percent_end.o(.ARM.Collect$$_printf_percent$$00000017)
    __rt_lib_init                            0x080001f5   Thumb Code     0  libinit.o(.ARM.Collect$$libinit$$00000000)
    __rt_lib_init_alloca_1                   0x080001fb   Thumb Code     0  libinit2.o(.ARM.Collect$$libinit$$0000002A)
    __rt_lib_init_argv_1                     0x080001fb   Thumb Code     0  libinit2.o(.ARM.Collect$$libinit$$00000028)
    __rt_lib_init_atexit_1                   0x080001fb   Thumb Code     0  libinit2.o(.ARM.Collect$$libinit$$00000017)
    __rt_lib_init_clock_1                    0x080001fb   Thumb Code     0  libinit2.o(.ARM.Collect$$libinit$$0000001D)
    __rt_lib_init_cpp_1                      0x080001fb   Thumb Code     0  libinit2.o(.ARM.Collect$$libinit$$0000002E)
    __rt_lib_init_exceptions_1               0x080001fb   Thumb Code     0  libinit2.o(.ARM.Collect$$libinit$$0000002C)
    __rt_lib_init_fp_trap_1                  0x080001fb   Thumb Code     0  libinit2.o(.ARM.Collect$$libinit$$0000001B)
    __rt_lib_init_getenv_1                   0x080001fb   Thumb Code     0  libinit2.o(.ARM.Collect$$libinit$$0000001F)
    __rt_lib_init_heap_1                     0x080001fb   Thumb Code     0  libinit2.o(.ARM.Collect$$libinit$$00000006)
    __rt_lib_init_lc_collate_1               0x080001fb   Thumb Code     0  libinit2.o(.ARM.Collect$$libinit$$0000000D)
    __rt_lib_init_lc_ctype_1                 0x080001fb   Thumb Code     0  libinit2.o(.ARM.Collect$$libinit$$0000000F)
    __rt_lib_init_lc_monetary_1              0x080001fb   Thumb Code     0  libinit2.o(.ARM.Collect$$libinit$$00000011)
    __rt_lib_init_lc_numeric_1               0x080001fb   Thumb Code     0  libinit2.o(.ARM.Collect$$libinit$$00000013)
    __rt_lib_init_lc_time_1                  0x080001fb   Thumb Code     0  libinit2.o(.ARM.Collect$$libinit$$00000015)
    __rt_lib_init_rand_1                     0x080001fb   Thumb Code     0  libinit2.o(.ARM.Collect$$libinit$$0000000A)
    __rt_lib_init_return                     0x080001fb   Thumb Code     0  libinit2.o(.ARM.Collect$$libinit$$0000002F)
    __rt_lib_init_signal_1                   0x080001fb   Thumb Code     0  libinit2.o(.ARM.Collect$$libinit$$00000019)
    __rt_lib_init_stdio_1                    0x080001fb   Thumb Code     0  libinit2.o(.ARM.Collect$$libinit$$00000021)
    __rt_lib_init_user_alloc_1               0x080001fb   Thumb Code     0  libinit2.o(.ARM.Collect$$libinit$$00000008)
    __rt_lib_shutdown                        0x080001fd   Thumb Code     0  libshutdown.o(.ARM.Collect$$libshutdown$$00000000)
    __rt_lib_shutdown_fp_trap_1              0x080001ff   Thumb Code     0  libshutdown2.o(.ARM.Collect$$libshutdown$$00000006)
    __rt_lib_shutdown_heap_1                 0x080001ff   Thumb Code     0  libshutdown2.o(.ARM.Collect$$libshutdown$$0000000E)
    __rt_lib_shutdown_return                 0x080001ff   Thumb Code     0  libshutdown2.o(.ARM.Collect$$libshutdown$$0000000F)
    __rt_lib_shutdown_signal_1               0x080001ff   Thumb Code     0  libshutdown2.o(.ARM.Collect$$libshutdown$$00000009)
    __rt_lib_shutdown_stdio_1                0x080001ff   Thumb Code     0  libshutdown2.o(.ARM.Collect$$libshutdown$$00000003)
    __rt_lib_shutdown_user_alloc_1           0x080001ff   Thumb Code     0  libshutdown2.o(.ARM.Collect$$libshutdown$$0000000B)
    __rt_entry                               0x08000201   Thumb Code     0  rtentry.o(.ARM.Collect$$rtentry$$00000000)
    __rt_entry_presh_1                       0x08000201   Thumb Code     0  rtentry2.o(.ARM.Collect$$rtentry$$00000002)
    __rt_entry_sh                            0x08000201   Thumb Code     0  rtentry4.o(.ARM.Collect$$rtentry$$00000004)
    __rt_entry_li                            0x08000207   Thumb Code     0  rtentry2.o(.ARM.Collect$$rtentry$$0000000A)
    __rt_entry_postsh_1                      0x08000207   Thumb Code     0  rtentry2.o(.ARM.Collect$$rtentry$$00000009)
    __rt_entry_main                          0x0800020b   Thumb Code     0  rtentry2.o(.ARM.Collect$$rtentry$$0000000D)
    __rt_entry_postli_1                      0x0800020b   Thumb Code     0  rtentry2.o(.ARM.Collect$$rtentry$$0000000C)
    __rt_exit                                0x08000213   Thumb Code     0  rtexit.o(.ARM.Collect$$rtexit$$00000000)
    __rt_exit_ls                             0x08000215   Thumb Code     0  rtexit2.o(.ARM.Collect$$rtexit$$00000003)
    __rt_exit_prels_1                        0x08000215   Thumb Code     0  rtexit2.o(.ARM.Collect$$rtexit$$00000002)
    __rt_exit_exit                           0x08000219   Thumb Code     0  rtexit2.o(.ARM.Collect$$rtexit$$00000004)
    NMI_Handler                              0x0800021f   Thumb Code     2  stm32f10x_it.o(.text)
    HardFault_Handler                        0x08000221   Thumb Code     4  stm32f10x_it.o(.text)
    MemManage_Handler                        0x08000225   Thumb Code     4  stm32f10x_it.o(.text)
    BusFault_Handler                         0x08000229   Thumb Code     4  stm32f10x_it.o(.text)
    UsageFault_Handler                       0x0800022d   Thumb Code     4  stm32f10x_it.o(.text)
    SVC_Handler                              0x08000231   Thumb Code     2  stm32f10x_it.o(.text)
    DebugMon_Handler                         0x08000233   Thumb Code     2  stm32f10x_it.o(.text)
    PendSV_Handler                           0x08000235   Thumb Code     2  stm32f10x_it.o(.text)
    SysTick_Handler                          0x08000237   Thumb Code     2  stm32f10x_it.o(.text)
    SystemInit                               0x08000301   Thumb Code    78  system_stm32f10x.o(.text)
    SystemCoreClockUpdate                    0x0800034f   Thumb Code   142  system_stm32f10x.o(.text)
    LCD19264_DATAOUT                         0x08000401   Thumb Code    22  lcd19264.o(.text)
    LCD19264_WR_Byte                         0x08000417   Thumb Code    66  lcd19264.o(.text)
    LCD19264_Init                            0x08000459   Thumb Code   106  lcd19264.o(.text)
    Choose_IC                                0x080004c3   Thumb Code    98  lcd19264.o(.text)
    Un_Choose_IC                             0x08000525   Thumb Code    32  lcd19264.o(.text)
    LCD19264_Clear                           0x08000545   Thumb Code    22  lcd19264.o(.text)
    LCD19264_Refresh_Gram                    0x0800055b   Thumb Code   116  lcd19264.o(.text)
    LCD19264_startup_screen                  0x080005cf   Thumb Code   116  lcd19264.o(.text)
    KeyboardInit                             0x08000655   Thumb Code   114  keyboard.o(.text)
    KeyHandle                                0x080006c7   Thumb Code    96  keyboard.o(.text)
    KeyScan                                  0x08000727   Thumb Code   456  keyboard.o(.text)
    LED_Init                                 0x080008ef   Thumb Code    50  keyboard.o(.text)
    TIM3_Int_Init                            0x08000945   Thumb Code    90  timer.o(.text)
    TIM3_IRQHandler                          0x0800099f   Thumb Code   108  timer.o(.text)
    Adc_Init                                 0x08000a2d   Thumb Code   214  adc.o(.text)
    DMA_Config                               0x08000b0d   Thumb Code    74  dma.o(.text)
    Remote_Init                              0x08000b59   Thumb Code   180  remote.o(.text)
    TIM4_IRQHandler                          0x08000c0d   Thumb Code   278  remote.o(.text)
    Remote_Scan                              0x08000d23   Thumb Code    76  remote.o(.text)
    SPI_Flash_ReadID                         0x08000d89   Thumb Code    66  flash.o(.text)
    SPI_Flash_Init                           0x08000dcb   Thumb Code    12  flash.o(.text)
    SPI_Flash_ReadSR                         0x08000dd7   Thumb Code    38  flash.o(.text)
    SPI_FLASH_Write_SR                       0x08000dfd   Thumb Code    34  flash.o(.text)
    SPI_FLASH_Write_Enable                   0x08000e1f   Thumb Code    26  flash.o(.text)
    SPI_FLASH_Write_Disable                  0x08000e39   Thumb Code    26  flash.o(.text)
    SPI_Flash_Read                           0x08000e53   Thumb Code    76  flash.o(.text)
    flash_read                               0x08000e9f   Thumb Code    20  flash.o(.text)
    SPI_Flash_Wait_Busy                      0x08000eb3   Thumb Code    18  flash.o(.text)
    SPI_Flash_Write_Page                     0x08000ec5   Thumb Code    82  flash.o(.text)
    SPI_Flash_Write_NoCheck                  0x08000f17   Thumb Code    70  flash.o(.text)
    SPI_Flash_Erase_Sector                   0x08000f5d   Thumb Code    64  flash.o(.text)
    SPI_Flash_Write                          0x08000f9d   Thumb Code   184  flash.o(.text)
    flash_write                              0x08001055   Thumb Code    20  flash.o(.text)
    SPI_Flash_Erase_Chip                     0x08001069   Thumb Code    38  flash.o(.text)
    SPI_Flash_PowerDown                      0x0800108f   Thumb Code    32  flash.o(.text)
    SPI_Flash_WAKEUP                         0x080010af   Thumb Code    32  flash.o(.text)
    SPI1_ReadWriteByte                       0x080010d9   Thumb Code    78  spi.o(.text)
    SPI1_Init                                0x08001127   Thumb Code   208  spi.o(.text)
    FSMC_Init                                0x08001205   Thumb Code   206  fsmc.o(.text)
    Fun_CaclPulseH_L                         0x080012d3   Thumb Code   144  fsmc.o(.text)
    PlatformTestFun                          0x08001363   Thumb Code  1502  fsmc.o(.text)
    delay_init                               0x08001a99   Thumb Code    40  delay.o(.text)
    delay_us                                 0x08001ac1   Thumb Code    70  delay.o(.text)
    delay_ms                                 0x08001b07   Thumb Code    70  delay.o(.text)
    NVIC_Configuration                       0x08001b5d   Thumb Code    12  sys.o(.text)
    _sys_exit                                0x08001b69   Thumb Code     6  usart.o(.text)
    fputc                                    0x08001b6f   Thumb Code    22  usart.o(.text)
    UART0_SendByte                           0x08001b85   Thumb Code    20  usart.o(.text)
    uart_init                                0x08001b99   Thumb Code   158  usart.o(.text)
    USART1_IRQHandler                        0x08001c37   Thumb Code   320  usart.o(.text)
    Reset_Handler                            0x08001d8d   Thumb Code     8  startup_stm32f10x_hd.o(.text)
    ADC1_2_IRQHandler                        0x08001da7   Thumb Code     0  startup_stm32f10x_hd.o(.text)
    ADC3_IRQHandler                          0x08001da7   Thumb Code     0  startup_stm32f10x_hd.o(.text)
    CAN1_RX1_IRQHandler                      0x08001da7   Thumb Code     0  startup_stm32f10x_hd.o(.text)
    CAN1_SCE_IRQHandler                      0x08001da7   Thumb Code     0  startup_stm32f10x_hd.o(.text)
    DMA1_Channel1_IRQHandler                 0x08001da7   Thumb Code     0  startup_stm32f10x_hd.o(.text)
    DMA1_Channel2_IRQHandler                 0x08001da7   Thumb Code     0  startup_stm32f10x_hd.o(.text)
    DMA1_Channel3_IRQHandler                 0x08001da7   Thumb Code     0  startup_stm32f10x_hd.o(.text)
    DMA1_Channel4_IRQHandler                 0x08001da7   Thumb Code     0  startup_stm32f10x_hd.o(.text)
    DMA1_Channel5_IRQHandler                 0x08001da7   Thumb Code     0  startup_stm32f10x_hd.o(.text)
    DMA1_Channel6_IRQHandler                 0x08001da7   Thumb Code     0  startup_stm32f10x_hd.o(.text)
    DMA1_Channel7_IRQHandler                 0x08001da7   Thumb Code     0  startup_stm32f10x_hd.o(.text)
    DMA2_Channel1_IRQHandler                 0x08001da7   Thumb Code     0  startup_stm32f10x_hd.o(.text)
    DMA2_Channel2_IRQHandler                 0x08001da7   Thumb Code     0  startup_stm32f10x_hd.o(.text)
    DMA2_Channel3_IRQHandler                 0x08001da7   Thumb Code     0  startup_stm32f10x_hd.o(.text)
    DMA2_Channel4_5_IRQHandler               0x08001da7   Thumb Code     0  startup_stm32f10x_hd.o(.text)
    EXTI0_IRQHandler                         0x08001da7   Thumb Code     0  startup_stm32f10x_hd.o(.text)
    EXTI15_10_IRQHandler                     0x08001da7   Thumb Code     0  startup_stm32f10x_hd.o(.text)
    EXTI1_IRQHandler                         0x08001da7   Thumb Code     0  startup_stm32f10x_hd.o(.text)
    EXTI2_IRQHandler                         0x08001da7   Thumb Code     0  startup_stm32f10x_hd.o(.text)
    EXTI3_IRQHandler                         0x08001da7   Thumb Code     0  startup_stm32f10x_hd.o(.text)
    EXTI4_IRQHandler                         0x08001da7   Thumb Code     0  startup_stm32f10x_hd.o(.text)
    EXTI9_5_IRQHandler                       0x08001da7   Thumb Code     0  startup_stm32f10x_hd.o(.text)
    FLASH_IRQHandler                         0x08001da7   Thumb Code     0  startup_stm32f10x_hd.o(.text)
    FSMC_IRQHandler                          0x08001da7   Thumb Code     0  startup_stm32f10x_hd.o(.text)
    I2C1_ER_IRQHandler                       0x08001da7   Thumb Code     0  startup_stm32f10x_hd.o(.text)
    I2C1_EV_IRQHandler                       0x08001da7   Thumb Code     0  startup_stm32f10x_hd.o(.text)
    I2C2_ER_IRQHandler                       0x08001da7   Thumb Code     0  startup_stm32f10x_hd.o(.text)
    I2C2_EV_IRQHandler                       0x08001da7   Thumb Code     0  startup_stm32f10x_hd.o(.text)
    PVD_IRQHandler                           0x08001da7   Thumb Code     0  startup_stm32f10x_hd.o(.text)
    RCC_IRQHandler                           0x08001da7   Thumb Code     0  startup_stm32f10x_hd.o(.text)
    RTCAlarm_IRQHandler                      0x08001da7   Thumb Code     0  startup_stm32f10x_hd.o(.text)
    RTC_IRQHandler                           0x08001da7   Thumb Code     0  startup_stm32f10x_hd.o(.text)
    SDIO_IRQHandler                          0x08001da7   Thumb Code     0  startup_stm32f10x_hd.o(.text)
    SPI1_IRQHandler                          0x08001da7   Thumb Code     0  startup_stm32f10x_hd.o(.text)
    SPI2_IRQHandler                          0x08001da7   Thumb Code     0  startup_stm32f10x_hd.o(.text)
    SPI3_IRQHandler                          0x08001da7   Thumb Code     0  startup_stm32f10x_hd.o(.text)
    TAMPER_IRQHandler                        0x08001da7   Thumb Code     0  startup_stm32f10x_hd.o(.text)
    TIM1_BRK_IRQHandler                      0x08001da7   Thumb Code     0  startup_stm32f10x_hd.o(.text)
    TIM1_CC_IRQHandler                       0x08001da7   Thumb Code     0  startup_stm32f10x_hd.o(.text)
    TIM1_TRG_COM_IRQHandler                  0x08001da7   Thumb Code     0  startup_stm32f10x_hd.o(.text)
    TIM1_UP_IRQHandler                       0x08001da7   Thumb Code     0  startup_stm32f10x_hd.o(.text)
    TIM2_IRQHandler                          0x08001da7   Thumb Code     0  startup_stm32f10x_hd.o(.text)
    TIM5_IRQHandler                          0x08001da7   Thumb Code     0  startup_stm32f10x_hd.o(.text)
    TIM6_IRQHandler                          0x08001da7   Thumb Code     0  startup_stm32f10x_hd.o(.text)
    TIM7_IRQHandler                          0x08001da7   Thumb Code     0  startup_stm32f10x_hd.o(.text)
    TIM8_BRK_IRQHandler                      0x08001da7   Thumb Code     0  startup_stm32f10x_hd.o(.text)
    TIM8_CC_IRQHandler                       0x08001da7   Thumb Code     0  startup_stm32f10x_hd.o(.text)
    TIM8_TRG_COM_IRQHandler                  0x08001da7   Thumb Code     0  startup_stm32f10x_hd.o(.text)
    TIM8_UP_IRQHandler                       0x08001da7   Thumb Code     0  startup_stm32f10x_hd.o(.text)
    UART4_IRQHandler                         0x08001da7   Thumb Code     0  startup_stm32f10x_hd.o(.text)
    UART5_IRQHandler                         0x08001da7   Thumb Code     0  startup_stm32f10x_hd.o(.text)
    USART2_IRQHandler                        0x08001da7   Thumb Code     0  startup_stm32f10x_hd.o(.text)
    USART3_IRQHandler                        0x08001da7   Thumb Code     0  startup_stm32f10x_hd.o(.text)
    USBWakeUp_IRQHandler                     0x08001da7   Thumb Code     0  startup_stm32f10x_hd.o(.text)
    WWDG_IRQHandler                          0x08001da7   Thumb Code     0  startup_stm32f10x_hd.o(.text)
    __user_initial_stackheap                 0x08001da9   Thumb Code     0  startup_stm32f10x_hd.o(.text)
    NVIC_PriorityGroupConfig                 0x08001dcd   Thumb Code    10  misc.o(.text)
    NVIC_Init                                0x08001dd7   Thumb Code   102  misc.o(.text)
    NVIC_SetVectorTable                      0x08001e3d   Thumb Code    14  misc.o(.text)
    NVIC_SystemLPConfig                      0x08001e4b   Thumb Code    34  misc.o(.text)
    SysTick_CLKSourceConfig                  0x08001e6d   Thumb Code    40  misc.o(.text)
    FSMC_NORSRAMDeInit                       0x08001ea9   Thumb Code    56  stm32f10x_fsmc.o(.text)
    FSMC_NANDDeInit                          0x08001ee1   Thumb Code    62  stm32f10x_fsmc.o(.text)
    FSMC_PCCARDDeInit                        0x08001f1f   Thumb Code    40  stm32f10x_fsmc.o(.text)
    FSMC_NORSRAMInit                         0x08001f47   Thumb Code   224  stm32f10x_fsmc.o(.text)
    FSMC_NANDInit                            0x08002027   Thumb Code   130  stm32f10x_fsmc.o(.text)
    FSMC_PCCARDInit                          0x080020a9   Thumb Code   124  stm32f10x_fsmc.o(.text)
    FSMC_NORSRAMStructInit                   0x08002125   Thumb Code   114  stm32f10x_fsmc.o(.text)
    FSMC_NANDStructInit                      0x08002197   Thumb Code    54  stm32f10x_fsmc.o(.text)
    FSMC_PCCARDStructInit                    0x080021cd   Thumb Code    60  stm32f10x_fsmc.o(.text)
    FSMC_NORSRAMCmd                          0x08002209   Thumb Code    46  stm32f10x_fsmc.o(.text)
    FSMC_NANDCmd                             0x08002237   Thumb Code    86  stm32f10x_fsmc.o(.text)
    FSMC_PCCARDCmd                           0x0800228d   Thumb Code    40  stm32f10x_fsmc.o(.text)
    FSMC_NANDECCCmd                          0x080022b5   Thumb Code   118  stm32f10x_fsmc.o(.text)
    FSMC_GetECC                              0x0800232b   Thumb Code    22  stm32f10x_fsmc.o(.text)
    FSMC_ITConfig                            0x08002341   Thumb Code   128  stm32f10x_fsmc.o(.text)
    FSMC_GetFlagStatus                       0x080023c1   Thumb Code    48  stm32f10x_fsmc.o(.text)
    FSMC_ClearFlag                           0x080023f1   Thumb Code    62  stm32f10x_fsmc.o(.text)
    FSMC_GetITStatus                         0x0800242f   Thumb Code    60  stm32f10x_fsmc.o(.text)
    FSMC_ClearITPendingBit                   0x0800246b   Thumb Code    64  stm32f10x_fsmc.o(.text)
    GPIO_DeInit                              0x080024c1   Thumb Code   172  stm32f10x_gpio.o(.text)
    GPIO_AFIODeInit                          0x0800256d   Thumb Code    20  stm32f10x_gpio.o(.text)
    GPIO_Init                                0x08002581   Thumb Code   274  stm32f10x_gpio.o(.text)
    GPIO_StructInit                          0x08002693   Thumb Code    16  stm32f10x_gpio.o(.text)
    GPIO_ReadInputDataBit                    0x080026a3   Thumb Code    18  stm32f10x_gpio.o(.text)
    GPIO_ReadInputData                       0x080026b5   Thumb Code     8  stm32f10x_gpio.o(.text)
    GPIO_ReadOutputDataBit                   0x080026bd   Thumb Code    18  stm32f10x_gpio.o(.text)
    GPIO_ReadOutputData                      0x080026cf   Thumb Code     8  stm32f10x_gpio.o(.text)
    GPIO_SetBits                             0x080026d7   Thumb Code     4  stm32f10x_gpio.o(.text)
    GPIO_ResetBits                           0x080026db   Thumb Code     4  stm32f10x_gpio.o(.text)
    GPIO_WriteBit                            0x080026df   Thumb Code    10  stm32f10x_gpio.o(.text)
    GPIO_Write                               0x080026e9   Thumb Code     4  stm32f10x_gpio.o(.text)
    GPIO_PinLockConfig                       0x080026ed   Thumb Code    18  stm32f10x_gpio.o(.text)
    GPIO_EventOutputConfig                   0x080026ff   Thumb Code    26  stm32f10x_gpio.o(.text)
    GPIO_EventOutputCmd                      0x08002719   Thumb Code     6  stm32f10x_gpio.o(.text)
    GPIO_PinRemapConfig                      0x0800271f   Thumb Code   138  stm32f10x_gpio.o(.text)
    GPIO_EXTILineConfig                      0x080027a9   Thumb Code    66  stm32f10x_gpio.o(.text)
    GPIO_ETH_MediaInterfaceConfig            0x080027eb   Thumb Code     6  stm32f10x_gpio.o(.text)
    RCC_DeInit                               0x08002819   Thumb Code    64  stm32f10x_rcc.o(.text)
    RCC_HSEConfig                            0x08002859   Thumb Code    70  stm32f10x_rcc.o(.text)
    RCC_GetFlagStatus                        0x0800289f   Thumb Code    56  stm32f10x_rcc.o(.text)
    RCC_WaitForHSEStartUp                    0x080028d7   Thumb Code    48  stm32f10x_rcc.o(.text)
    RCC_AdjustHSICalibrationValue            0x08002907   Thumb Code    20  stm32f10x_rcc.o(.text)
    RCC_HSICmd                               0x0800291b   Thumb Code     6  stm32f10x_rcc.o(.text)
    RCC_PLLConfig                            0x08002921   Thumb Code    24  stm32f10x_rcc.o(.text)
    RCC_PLLCmd                               0x08002939   Thumb Code     6  stm32f10x_rcc.o(.text)
    RCC_SYSCLKConfig                         0x0800293f   Thumb Code    18  stm32f10x_rcc.o(.text)
    RCC_GetSYSCLKSource                      0x08002951   Thumb Code    10  stm32f10x_rcc.o(.text)
    RCC_HCLKConfig                           0x0800295b   Thumb Code    18  stm32f10x_rcc.o(.text)
    RCC_PCLK1Config                          0x0800296d   Thumb Code    18  stm32f10x_rcc.o(.text)
    RCC_PCLK2Config                          0x0800297f   Thumb Code    20  stm32f10x_rcc.o(.text)
    RCC_ITConfig                             0x08002993   Thumb Code    30  stm32f10x_rcc.o(.text)
    RCC_USBCLKConfig                         0x080029b1   Thumb Code     6  stm32f10x_rcc.o(.text)
    RCC_ADCCLKConfig                         0x080029b7   Thumb Code    18  stm32f10x_rcc.o(.text)
    RCC_LSEConfig                            0x080029c9   Thumb Code    44  stm32f10x_rcc.o(.text)
    RCC_LSICmd                               0x080029f5   Thumb Code     6  stm32f10x_rcc.o(.text)
    RCC_RTCCLKConfig                         0x080029fb   Thumb Code    12  stm32f10x_rcc.o(.text)
    RCC_RTCCLKCmd                            0x08002a07   Thumb Code     8  stm32f10x_rcc.o(.text)
    RCC_GetClocksFreq                        0x08002a0f   Thumb Code   192  stm32f10x_rcc.o(.text)
    RCC_AHBPeriphClockCmd                    0x08002acf   Thumb Code    26  stm32f10x_rcc.o(.text)
    RCC_APB2PeriphClockCmd                   0x08002ae9   Thumb Code    26  stm32f10x_rcc.o(.text)
    RCC_APB1PeriphClockCmd                   0x08002b03   Thumb Code    26  stm32f10x_rcc.o(.text)
    RCC_APB2PeriphResetCmd                   0x08002b1d   Thumb Code    26  stm32f10x_rcc.o(.text)
    RCC_APB1PeriphResetCmd                   0x08002b37   Thumb Code    26  stm32f10x_rcc.o(.text)
    RCC_BackupResetCmd                       0x08002b51   Thumb Code     8  stm32f10x_rcc.o(.text)
    RCC_ClockSecuritySystemCmd               0x08002b59   Thumb Code     6  stm32f10x_rcc.o(.text)
    RCC_MCOConfig                            0x08002b5f   Thumb Code     6  stm32f10x_rcc.o(.text)
    RCC_ClearFlag                            0x08002b65   Thumb Code    14  stm32f10x_rcc.o(.text)
    RCC_GetITStatus                          0x08002b73   Thumb Code    20  stm32f10x_rcc.o(.text)
    RCC_ClearITPendingBit                    0x08002b87   Thumb Code     6  stm32f10x_rcc.o(.text)
    USART_DeInit                             0x08002bb9   Thumb Code   134  stm32f10x_usart.o(.text)
    USART_Init                               0x08002c3f   Thumb Code   210  stm32f10x_usart.o(.text)
    USART_StructInit                         0x08002d11   Thumb Code    24  stm32f10x_usart.o(.text)
    USART_ClockInit                          0x08002d29   Thumb Code    34  stm32f10x_usart.o(.text)
    USART_ClockStructInit                    0x08002d4b   Thumb Code    12  stm32f10x_usart.o(.text)
    USART_Cmd                                0x08002d57   Thumb Code    24  stm32f10x_usart.o(.text)
    USART_ITConfig                           0x08002d6f   Thumb Code    74  stm32f10x_usart.o(.text)
    USART_DMACmd                             0x08002db9   Thumb Code    24  stm32f10x_usart.o(.text)
    USART_SetAddress                         0x08002dd1   Thumb Code    18  stm32f10x_usart.o(.text)
    USART_WakeUpConfig                       0x08002de3   Thumb Code    18  stm32f10x_usart.o(.text)
    USART_ReceiverWakeUpCmd                  0x08002df5   Thumb Code    24  stm32f10x_usart.o(.text)
    USART_LINBreakDetectLengthConfig         0x08002e0d   Thumb Code    18  stm32f10x_usart.o(.text)
    USART_LINCmd                             0x08002e1f   Thumb Code    24  stm32f10x_usart.o(.text)
    USART_SendData                           0x08002e37   Thumb Code     8  stm32f10x_usart.o(.text)
    USART_ReceiveData                        0x08002e3f   Thumb Code    10  stm32f10x_usart.o(.text)
    USART_SendBreak                          0x08002e49   Thumb Code    10  stm32f10x_usart.o(.text)
    USART_SetGuardTime                       0x08002e53   Thumb Code    16  stm32f10x_usart.o(.text)
    USART_SetPrescaler                       0x08002e63   Thumb Code    16  stm32f10x_usart.o(.text)
    USART_SmartCardCmd                       0x08002e73   Thumb Code    24  stm32f10x_usart.o(.text)
    USART_SmartCardNACKCmd                   0x08002e8b   Thumb Code    24  stm32f10x_usart.o(.text)
    USART_HalfDuplexCmd                      0x08002ea3   Thumb Code    24  stm32f10x_usart.o(.text)
    USART_OverSampling8Cmd                   0x08002ebb   Thumb Code    22  stm32f10x_usart.o(.text)
    USART_OneBitMethodCmd                    0x08002ed1   Thumb Code    24  stm32f10x_usart.o(.text)
    USART_IrDAConfig                         0x08002ee9   Thumb Code    18  stm32f10x_usart.o(.text)
    USART_IrDACmd                            0x08002efb   Thumb Code    24  stm32f10x_usart.o(.text)
    USART_GetFlagStatus                      0x08002f13   Thumb Code    26  stm32f10x_usart.o(.text)
    USART_ClearFlag                          0x08002f2d   Thumb Code    18  stm32f10x_usart.o(.text)
    USART_GetITStatus                        0x08002f3f   Thumb Code    84  stm32f10x_usart.o(.text)
    USART_ClearITPendingBit                  0x08002f93   Thumb Code    50  stm32f10x_usart.o(.text)
    TIM_DeInit                               0x08002fc5   Thumb Code   424  stm32f10x_tim.o(.text)
    TIM_TimeBaseInit                         0x0800316d   Thumb Code   122  stm32f10x_tim.o(.text)
    TIM_OC1Init                              0x080031e7   Thumb Code   132  stm32f10x_tim.o(.text)
    TIM_OC2Init                              0x0800326b   Thumb Code   146  stm32f10x_tim.o(.text)
    TIM_OC3Init                              0x080032fd   Thumb Code   142  stm32f10x_tim.o(.text)
    TIM_OC4Init                              0x0800338b   Thumb Code   174  stm32f10x_tim.o(.text)
    TIM_SetIC4Prescaler                      0x08003439   Thumb Code    22  stm32f10x_tim.o(.text)
    TIM_SetIC3Prescaler                      0x080034c5   Thumb Code    18  stm32f10x_tim.o(.text)
    TIM_SetIC2Prescaler                      0x08003549   Thumb Code    22  stm32f10x_tim.o(.text)
    TIM_SetIC1Prescaler                      0x080035d5   Thumb Code    18  stm32f10x_tim.o(.text)
    TIM_ICInit                               0x08003651   Thumb Code   150  stm32f10x_tim.o(.text)
    TIM_PWMIConfig                           0x080036e7   Thumb Code   124  stm32f10x_tim.o(.text)
    TIM_BDTRConfig                           0x08003763   Thumb Code    32  stm32f10x_tim.o(.text)
    TIM_TimeBaseStructInit                   0x08003783   Thumb Code    18  stm32f10x_tim.o(.text)
    TIM_OCStructInit                         0x08003795   Thumb Code    20  stm32f10x_tim.o(.text)
    TIM_ICStructInit                         0x080037a9   Thumb Code    18  stm32f10x_tim.o(.text)
    TIM_BDTRStructInit                       0x080037bb   Thumb Code    18  stm32f10x_tim.o(.text)
    TIM_Cmd                                  0x080037cd   Thumb Code    24  stm32f10x_tim.o(.text)
    TIM_CtrlPWMOutputs                       0x080037e5   Thumb Code    50  stm32f10x_tim.o(.text)
    TIM_ITConfig                             0x08003817   Thumb Code    24  stm32f10x_tim.o(.text)
    TIM_GenerateEvent                        0x0800382f   Thumb Code     4  stm32f10x_tim.o(.text)
    TIM_DMAConfig                            0x08003833   Thumb Code    10  stm32f10x_tim.o(.text)
    TIM_DMACmd                               0x0800383d   Thumb Code    24  stm32f10x_tim.o(.text)
    TIM_InternalClockConfig                  0x08003855   Thumb Code    12  stm32f10x_tim.o(.text)
    TIM_SelectInputTrigger                   0x08003861   Thumb Code    18  stm32f10x_tim.o(.text)
    TIM_ITRxExternalClockConfig              0x08003873   Thumb Code    24  stm32f10x_tim.o(.text)
    TIM_TIxExternalClockConfig               0x0800388b   Thumb Code    62  stm32f10x_tim.o(.text)
    TIM_ETRConfig                            0x080038c9   Thumb Code    24  stm32f10x_tim.o(.text)
    TIM_ETRClockMode1Config                  0x080038e1   Thumb Code    54  stm32f10x_tim.o(.text)
    TIM_ETRClockMode2Config                  0x08003917   Thumb Code    32  stm32f10x_tim.o(.text)
    TIM_PrescalerConfig                      0x08003937   Thumb Code     6  stm32f10x_tim.o(.text)
    TIM_CounterModeConfig                    0x0800393d   Thumb Code    18  stm32f10x_tim.o(.text)
    TIM_EncoderInterfaceConfig               0x0800394f   Thumb Code    62  stm32f10x_tim.o(.text)
    TIM_ForcedOC1Config                      0x0800398d   Thumb Code    18  stm32f10x_tim.o(.text)
    TIM_ForcedOC2Config                      0x0800399f   Thumb Code    22  stm32f10x_tim.o(.text)
    TIM_ForcedOC3Config                      0x080039b5   Thumb Code    18  stm32f10x_tim.o(.text)
    TIM_ForcedOC4Config                      0x080039c7   Thumb Code    22  stm32f10x_tim.o(.text)
    TIM_ARRPreloadConfig                     0x080039dd   Thumb Code    24  stm32f10x_tim.o(.text)
    TIM_SelectCOM                            0x080039f5   Thumb Code    24  stm32f10x_tim.o(.text)
    TIM_SelectCCDMA                          0x08003a0d   Thumb Code    24  stm32f10x_tim.o(.text)
    TIM_CCPreloadControl                     0x08003a25   Thumb Code    24  stm32f10x_tim.o(.text)
    TIM_OC1PreloadConfig                     0x08003a3d   Thumb Code    18  stm32f10x_tim.o(.text)
    TIM_OC2PreloadConfig                     0x08003a4f   Thumb Code    22  stm32f10x_tim.o(.text)
    TIM_OC3PreloadConfig                     0x08003a65   Thumb Code    18  stm32f10x_tim.o(.text)
    TIM_OC4PreloadConfig                     0x08003a77   Thumb Code    22  stm32f10x_tim.o(.text)
    TIM_OC1FastConfig                        0x08003a8d   Thumb Code    18  stm32f10x_tim.o(.text)
    TIM_OC2FastConfig                        0x08003a9f   Thumb Code    22  stm32f10x_tim.o(.text)
    TIM_OC3FastConfig                        0x08003ab5   Thumb Code    18  stm32f10x_tim.o(.text)
    TIM_OC4FastConfig                        0x08003ac7   Thumb Code    22  stm32f10x_tim.o(.text)
    TIM_ClearOC1Ref                          0x08003add   Thumb Code    18  stm32f10x_tim.o(.text)
    TIM_ClearOC2Ref                          0x08003aef   Thumb Code    20  stm32f10x_tim.o(.text)
    TIM_ClearOC3Ref                          0x08003b03   Thumb Code    18  stm32f10x_tim.o(.text)
    TIM_ClearOC4Ref                          0x08003b15   Thumb Code    20  stm32f10x_tim.o(.text)
    TIM_OC1PolarityConfig                    0x08003b29   Thumb Code    18  stm32f10x_tim.o(.text)
    TIM_OC1NPolarityConfig                   0x08003b3b   Thumb Code    18  stm32f10x_tim.o(.text)
    TIM_OC2PolarityConfig                    0x08003b4d   Thumb Code    22  stm32f10x_tim.o(.text)
    TIM_OC2NPolarityConfig                   0x08003b63   Thumb Code    22  stm32f10x_tim.o(.text)
    TIM_OC3PolarityConfig                    0x08003b79   Thumb Code    22  stm32f10x_tim.o(.text)
    TIM_OC3NPolarityConfig                   0x08003b8f   Thumb Code    22  stm32f10x_tim.o(.text)
    TIM_OC4PolarityConfig                    0x08003ba5   Thumb Code    22  stm32f10x_tim.o(.text)
    TIM_CCxCmd                               0x08003bbb   Thumb Code    34  stm32f10x_tim.o(.text)
    TIM_CCxNCmd                              0x08003bdd   Thumb Code    34  stm32f10x_tim.o(.text)
    TIM_SelectOCxM                           0x08003bff   Thumb Code    82  stm32f10x_tim.o(.text)
    TIM_UpdateDisableConfig                  0x08003c51   Thumb Code    24  stm32f10x_tim.o(.text)
    TIM_UpdateRequestConfig                  0x08003c69   Thumb Code    24  stm32f10x_tim.o(.text)
    TIM_SelectHallSensor                     0x08003c81   Thumb Code    24  stm32f10x_tim.o(.text)
    TIM_SelectOnePulseMode                   0x08003c99   Thumb Code    18  stm32f10x_tim.o(.text)
    TIM_SelectOutputTrigger                  0x08003cab   Thumb Code    18  stm32f10x_tim.o(.text)
    TIM_SelectSlaveMode                      0x08003cbd   Thumb Code    18  stm32f10x_tim.o(.text)
    TIM_SelectMasterSlaveMode                0x08003ccf   Thumb Code    18  stm32f10x_tim.o(.text)
    TIM_SetCounter                           0x08003ce1   Thumb Code     4  stm32f10x_tim.o(.text)
    TIM_SetAutoreload                        0x08003ce5   Thumb Code     4  stm32f10x_tim.o(.text)
    TIM_SetCompare1                          0x08003ce9   Thumb Code     4  stm32f10x_tim.o(.text)
    TIM_SetCompare2                          0x08003ced   Thumb Code     4  stm32f10x_tim.o(.text)
    TIM_SetCompare3                          0x08003cf1   Thumb Code     4  stm32f10x_tim.o(.text)
    TIM_SetCompare4                          0x08003cf5   Thumb Code     6  stm32f10x_tim.o(.text)
    TIM_SetClockDivision                     0x08003cfb   Thumb Code    18  stm32f10x_tim.o(.text)
    TIM_GetCapture1                          0x08003d0d   Thumb Code     6  stm32f10x_tim.o(.text)
    TIM_GetCapture2                          0x08003d13   Thumb Code     6  stm32f10x_tim.o(.text)
    TIM_GetCapture3                          0x08003d19   Thumb Code     6  stm32f10x_tim.o(.text)
    TIM_GetCapture4                          0x08003d1f   Thumb Code     8  stm32f10x_tim.o(.text)
    TIM_GetCounter                           0x08003d27   Thumb Code     6  stm32f10x_tim.o(.text)
    TIM_GetPrescaler                         0x08003d2d   Thumb Code     6  stm32f10x_tim.o(.text)
    TIM_GetFlagStatus                        0x08003d33   Thumb Code    18  stm32f10x_tim.o(.text)
    TIM_ClearFlag                            0x08003d45   Thumb Code     6  stm32f10x_tim.o(.text)
    TIM_GetITStatus                          0x08003d4b   Thumb Code    34  stm32f10x_tim.o(.text)
    TIM_ClearITPendingBit                    0x08003d6d   Thumb Code     6  stm32f10x_tim.o(.text)
    ADC_DeInit                               0x08003d75   Thumb Code    78  stm32f10x_adc.o(.text)
    ADC_Init                                 0x08003dc3   Thumb Code    70  stm32f10x_adc.o(.text)
    ADC_StructInit                           0x08003e09   Thumb Code    18  stm32f10x_adc.o(.text)
    ADC_Cmd                                  0x08003e1b   Thumb Code    22  stm32f10x_adc.o(.text)
    ADC_DMACmd                               0x08003e31   Thumb Code    22  stm32f10x_adc.o(.text)
    ADC_ITConfig                             0x08003e47   Thumb Code    24  stm32f10x_adc.o(.text)
    ADC_ResetCalibration                     0x08003e5f   Thumb Code    10  stm32f10x_adc.o(.text)
    ADC_GetResetCalibrationStatus            0x08003e69   Thumb Code    20  stm32f10x_adc.o(.text)
    ADC_StartCalibration                     0x08003e7d   Thumb Code    10  stm32f10x_adc.o(.text)
    ADC_GetCalibrationStatus                 0x08003e87   Thumb Code    20  stm32f10x_adc.o(.text)
    ADC_SoftwareStartConvCmd                 0x08003e9b   Thumb Code    22  stm32f10x_adc.o(.text)
    ADC_GetSoftwareStartConvStatus           0x08003eb1   Thumb Code    20  stm32f10x_adc.o(.text)
    ADC_DiscModeChannelCountConfig           0x08003ec5   Thumb Code    24  stm32f10x_adc.o(.text)
    ADC_DiscModeCmd                          0x08003edd   Thumb Code    22  stm32f10x_adc.o(.text)
    ADC_RegularChannelConfig                 0x08003ef3   Thumb Code   184  stm32f10x_adc.o(.text)
    ADC_ExternalTrigConvCmd                  0x08003fab   Thumb Code    22  stm32f10x_adc.o(.text)
    ADC_GetConversionValue                   0x08003fc1   Thumb Code     8  stm32f10x_adc.o(.text)
    ADC_GetDualModeConversionValue           0x08003fc9   Thumb Code     8  stm32f10x_adc.o(.text)
    ADC_AutoInjectedConvCmd                  0x08003fd1   Thumb Code    22  stm32f10x_adc.o(.text)
    ADC_InjectedDiscModeCmd                  0x08003fe7   Thumb Code    22  stm32f10x_adc.o(.text)
    ADC_ExternalTrigInjectedConvConfig       0x08003ffd   Thumb Code    16  stm32f10x_adc.o(.text)
    ADC_ExternalTrigInjectedConvCmd          0x0800400d   Thumb Code    22  stm32f10x_adc.o(.text)
    ADC_SoftwareStartInjectedConvCmd         0x08004023   Thumb Code    22  stm32f10x_adc.o(.text)
    ADC_GetSoftwareStartInjectedConvCmdStatus 0x08004039   Thumb Code    20  stm32f10x_adc.o(.text)
    ADC_InjectedChannelConfig                0x0800404d   Thumb Code   130  stm32f10x_adc.o(.text)
    ADC_InjectedSequencerLengthConfig        0x080040cf   Thumb Code    24  stm32f10x_adc.o(.text)
    ADC_SetInjectedOffset                    0x080040e7   Thumb Code    12  stm32f10x_adc.o(.text)
    ADC_GetInjectedConversionValue           0x080040f3   Thumb Code    18  stm32f10x_adc.o(.text)
    ADC_AnalogWatchdogCmd                    0x08004105   Thumb Code    16  stm32f10x_adc.o(.text)
    ADC_AnalogWatchdogThresholdsConfig       0x08004115   Thumb Code     6  stm32f10x_adc.o(.text)
    ADC_AnalogWatchdogSingleChannelConfig    0x0800411b   Thumb Code    16  stm32f10x_adc.o(.text)
    ADC_TempSensorVrefintCmd                 0x0800412b   Thumb Code    38  stm32f10x_adc.o(.text)
    ADC_GetFlagStatus                        0x08004151   Thumb Code    44  stm32f10x_adc.o(.text)
    ADC_ClearFlag                            0x0800417d   Thumb Code     6  stm32f10x_adc.o(.text)
    ADC_GetITStatus                          0x08004183   Thumb Code    36  stm32f10x_adc.o(.text)
    ADC_ClearITPendingBit                    0x080041a7   Thumb Code    10  stm32f10x_adc.o(.text)
    DMA_DeInit                               0x080041b1   Thumb Code   324  stm32f10x_dma.o(.text)
    DMA_Init                                 0x080042f5   Thumb Code    60  stm32f10x_dma.o(.text)
    DMA_StructInit                           0x08004331   Thumb Code    26  stm32f10x_dma.o(.text)
    DMA_Cmd                                  0x0800434b   Thumb Code    24  stm32f10x_dma.o(.text)
    DMA_ITConfig                             0x08004363   Thumb Code    18  stm32f10x_dma.o(.text)
    DMA_SetCurrDataCounter                   0x08004375   Thumb Code     4  stm32f10x_dma.o(.text)
    DMA_GetCurrDataCounter                   0x08004379   Thumb Code     8  stm32f10x_dma.o(.text)
    DMA_GetFlagStatus                        0x08004381   Thumb Code    38  stm32f10x_dma.o(.text)
    DMA_ClearFlag                            0x080043a7   Thumb Code    22  stm32f10x_dma.o(.text)
    DMA_GetITStatus                          0x080043bd   Thumb Code    38  stm32f10x_dma.o(.text)
    DMA_ClearITPendingBit                    0x080043e3   Thumb Code    22  stm32f10x_dma.o(.text)
    SPI_I2S_DeInit                           0x08004401   Thumb Code    76  stm32f10x_spi.o(.text)
    SPI_Init                                 0x0800444d   Thumb Code    60  stm32f10x_spi.o(.text)
    I2S_Init                                 0x08004489   Thumb Code   222  stm32f10x_spi.o(.text)
    SPI_StructInit                           0x08004567   Thumb Code    24  stm32f10x_spi.o(.text)
    I2S_StructInit                           0x0800457f   Thumb Code    20  stm32f10x_spi.o(.text)
    SPI_Cmd                                  0x08004593   Thumb Code    24  stm32f10x_spi.o(.text)
    I2S_Cmd                                  0x080045ab   Thumb Code    24  stm32f10x_spi.o(.text)
    SPI_I2S_ITConfig                         0x080045c3   Thumb Code    36  stm32f10x_spi.o(.text)
    SPI_I2S_DMACmd                           0x080045e7   Thumb Code    24  stm32f10x_spi.o(.text)
    SPI_I2S_SendData                         0x080045ff   Thumb Code     4  stm32f10x_spi.o(.text)
    SPI_I2S_ReceiveData                      0x08004603   Thumb Code     6  stm32f10x_spi.o(.text)
    SPI_NSSInternalSoftwareConfig            0x08004609   Thumb Code    30  stm32f10x_spi.o(.text)
    SPI_SSOutputCmd                          0x08004627   Thumb Code    24  stm32f10x_spi.o(.text)
    SPI_DataSizeConfig                       0x0800463f   Thumb Code    18  stm32f10x_spi.o(.text)
    SPI_TransmitCRC                          0x08004651   Thumb Code    10  stm32f10x_spi.o(.text)
    SPI_CalculateCRC                         0x0800465b   Thumb Code    24  stm32f10x_spi.o(.text)
    SPI_GetCRC                               0x08004673   Thumb Code    16  stm32f10x_spi.o(.text)
    SPI_GetCRCPolynomial                     0x08004683   Thumb Code     6  stm32f10x_spi.o(.text)
    SPI_BiDirectionalLineConfig              0x08004689   Thumb Code    28  stm32f10x_spi.o(.text)
    SPI_I2S_GetFlagStatus                    0x080046a5   Thumb Code    18  stm32f10x_spi.o(.text)
    SPI_I2S_ClearFlag                        0x080046b7   Thumb Code     6  stm32f10x_spi.o(.text)
    SPI_I2S_GetITStatus                      0x080046bd   Thumb Code    52  stm32f10x_spi.o(.text)
    SPI_I2S_ClearITPendingBit                0x080046f1   Thumb Code    20  stm32f10x_spi.o(.text)
    ReadParaFromRom                          0x08004711   Thumb Code    14  axis4.o(.text)
    InitialSystemPara                        0x0800471f   Thumb Code   502  axis4.o(.text)
    WriteNum                                 0x08004915   Thumb Code   146  axis4.o(.text)
    GUI_Write_Buffer                         0x080049a7   Thumb Code    56  axis4.o(.text)
    WriteNumUnderLine                        0x080049df   Thumb Code    84  axis4.o(.text)
    WriteCara                                0x08004a33   Thumb Code    82  axis4.o(.text)
    ScreenAxisChoose                         0x08004a85   Thumb Code   348  axis4.o(.text)
    fun_Num2string                           0x08004be1   Thumb Code   418  axis4.o(.text)
    ScreenRun                                0x08004d83   Thumb Code  1178  axis4.o(.text)
    StScrnRnSt                               0x0800521d   Thumb Code  1628  axis4.o(.text)
    Fun_GrpReadGrpCmndBuf                    0x08005879   Thumb Code    88  axis4.o(.text)
    Fun_Interpolation                        0x080058d1   Thumb Code   938  axis4.o(.text)
    ClearScreen                              0x08005c7b   Thumb Code    22  axis4.o(.text)
    ParaEdit                                 0x08005c91   Thumb Code  1598  axis4.o(.text)
    ExTen                                    0x080062cf   Thumb Code    28  axis4.o(.text)
    SaveSysPara                              0x080062eb   Thumb Code   536  axis4.o(.text)
    DelayNS                                  0x08006503   Thumb Code    24  axis4.o(.text)
    DelayCommand                             0x0800651b   Thumb Code    12  axis4.o(.text)
    CacuCirCen                               0x08006527   Thumb Code  1172  axis4.o(.text)
    SaveParaToRom                            0x080069bb   Thumb Code    14  axis4.o(.text)
    XAxisSeekZeroFun                         0x080069c9   Thumb Code   322  axis4.o(.text)
    YAxisSeekZeroFun                         0x08006b0b   Thumb Code   322  axis4.o(.text)
    ZAxisSeekZeroFun                         0x08006c4d   Thumb Code   490  axis4.o(.text)
    TAxisSeekZeroFun                         0x08006e37   Thumb Code   322  axis4.o(.text)
    ReturnCmmndRes                           0x08006f79   Thumb Code    96  axis4.o(.text)
    AskMotionInfo                            0x08006fd9   Thumb Code   828  axis4.o(.text)
    ReturnMotionInfo                         0x08007315   Thumb Code    92  axis4.o(.text)
    ReturnLastCmmndInfo                      0x08007371   Thumb Code    26  axis4.o(.text)
    ReturnPara                               0x0800738b   Thumb Code   106  axis4.o(.text)
    ManualMoveToXPos                         0x080073f5   Thumb Code   212  axis4.o(.text)
    ManualMoveToYPos                         0x080074c9   Thumb Code   212  axis4.o(.text)
    ManualMoveToZPos                         0x0800759d   Thumb Code   412  axis4.o(.text)
    ManualMoveToTPos                         0x08007739   Thumb Code   212  axis4.o(.text)
    SetOuput                                 0x0800780d   Thumb Code    64  axis4.o(.text)
    ReadSysParaFormAT24C02                   0x0800784d   Thumb Code     2  axis4.o(.text)
    Fun_GrpWrtGrpCmndBuf                     0x0800784f   Thumb Code    80  axis4.o(.text)
    main                                     0x0800789f   Thumb Code 20382  axis4.o(.text)
    USB_HP_CAN1_TX_IRQHandler                0x0800c8c5   Thumb Code     8  usb_mass.o(.text)
    USB_LP_CAN1_RX0_IRQHandler               0x0800c8cd   Thumb Code     8  usb_mass.o(.text)
    USB_initialize                           0x0800c8d5   Thumb Code     8  usb_mass.o(.text)
    __use_no_semihosting                     0x0800c8dd   Thumb Code     2  use_no_semi_2.o(.text)
    __2printf                                0x0800c8e1   Thumb Code    20  noretval__2printf.o(.text)
    _printf_pre_padding                      0x0800c8f9   Thumb Code    46  _printf_pad.o(.text)
    _printf_post_padding                     0x0800c927   Thumb Code    36  _printf_pad.o(.text)
    _printf_int_dec                          0x0800c94d   Thumb Code   102  _printf_dec.o(.text)
    _printf_int_hex                          0x0800c9c5   Thumb Code    88  _printf_hex_int.o(.text)
    _printf_longlong_hex                     0x0800c9c5   Thumb Code     0  _printf_hex_int.o(.text)
    __printf                                 0x0800ca21   Thumb Code   310  __printf_flags_wp.o(.text)
    __aeabi_memcpy                           0x0800cb5d   Thumb Code     0  rt_memcpy_v6.o(.text)
    __rt_memcpy                              0x0800cb5d   Thumb Code   138  rt_memcpy_v6.o(.text)
    _memcpy_lastbytes                        0x0800cbc3   Thumb Code     0  rt_memcpy_v6.o(.text)
    __aeabi_memclr                           0x0800cbe7   Thumb Code     0  rt_memclr.o(.text)
    __rt_memclr                              0x0800cbe7   Thumb Code    68  rt_memclr.o(.text)
    _memset                                  0x0800cbeb   Thumb Code     0  rt_memclr.o(.text)
    __use_two_region_memory                  0x0800cc2b   Thumb Code     2  heapauxi.o(.text)
    __rt_heap_escrow$2region                 0x0800cc2d   Thumb Code     2  heapauxi.o(.text)
    __rt_heap_expand$2region                 0x0800cc2f   Thumb Code     2  heapauxi.o(.text)
    __I$use$semihosting                      0x0800cc31   Thumb Code     0  use_no_semi.o(.text)
    __use_no_semihosting_swi                 0x0800cc31   Thumb Code     2  use_no_semi.o(.text)
    __read_errno                             0x0800cc33   Thumb Code    10  _rserrno.o(.text)
    __set_errno                              0x0800cc3d   Thumb Code    12  _rserrno.o(.text)
    _printf_int_common                       0x0800cc49   Thumb Code   184  _printf_intcommon.o(.text)
    _printf_char_file                        0x0800cd01   Thumb Code    32  _printf_char_file.o(.text)
    __aeabi_memcpy4                          0x0800cd25   Thumb Code     0  rt_memcpy_w.o(.text)
    __aeabi_memcpy8                          0x0800cd25   Thumb Code     0  rt_memcpy_w.o(.text)
    __rt_memcpy_w                            0x0800cd25   Thumb Code   100  rt_memcpy_w.o(.text)
    _memcpy_lastbytes_aligned                0x0800cd6d   Thumb Code     0  rt_memcpy_w.o(.text)
    __aeabi_memclr4                          0x0800cd89   Thumb Code     0  rt_memclr_w.o(.text)
    __aeabi_memclr8                          0x0800cd89   Thumb Code     0  rt_memclr_w.o(.text)
    __rt_memclr_w                            0x0800cd89   Thumb Code    78  rt_memclr_w.o(.text)
    _memset_w                                0x0800cd8d   Thumb Code     0  rt_memclr_w.o(.text)
    __aeabi_errno_addr                       0x0800cdd9   Thumb Code     8  rt_errno_addr_intlibspace.o(.text)
    __errno$intlibspace                      0x0800cdd9   Thumb Code     0  rt_errno_addr_intlibspace.o(.text)
    __rt_errno_addr$intlibspace              0x0800cdd9   Thumb Code     0  rt_errno_addr_intlibspace.o(.text)
    _printf_char_common                      0x0800cdeb   Thumb Code    32  _printf_char_common.o(.text)
    ferror                                   0x0800ce11   Thumb Code     8  ferror.o(.text)
    __user_libspace                          0x0800ce19   Thumb Code     8  libspace.o(.text)
    __user_perproc_libspace                  0x0800ce19   Thumb Code     0  libspace.o(.text)
    __user_perthread_libspace                0x0800ce19   Thumb Code     0  libspace.o(.text)
    __user_setup_stackheap                   0x0800ce21   Thumb Code    74  sys_stackheap_outer.o(.text)
    exit                                     0x0800ce6b   Thumb Code    12  exit.o(.text)
    __rt_fp_status_addr                      0x0800ce79   Thumb Code     8  rt_fp_status_addr_intlibspace.o(.text)
    Bot_Abort                                0x0800ce81   Thumb Code    64  usb_bot.o(i.Bot_Abort)
    ByteSwap                                 0x0800cec1   Thumb Code    12  usb_regs.o(i.ByteSwap)
    CBW_Decode                               0x0800cecd   Thumb Code   676  usb_bot.o(i.CBW_Decode)
    CTR_HP                                   0x0800d191   Thumb Code   160  usb_int.o(i.CTR_HP)
    CTR_LP                                   0x0800d245   Thumb Code   582  usb_int.o(i.CTR_LP)
    ClearDTOG_RX                             0x0800d4a9   Thumb Code    38  usb_regs.o(i.ClearDTOG_RX)
    ClearDTOG_TX                             0x0800d4d5   Thumb Code    38  usb_regs.o(i.ClearDTOG_TX)
    Clear_Status_Out                         0x0800d501   Thumb Code    26  usb_regs.o(i.Clear_Status_Out)
    EP1_IN_Callback                          0x0800d929   Thumb Code     8  usb_endp.o(i.EP1_IN_Callback)
    EP2_OUT_Callback                         0x0800d931   Thumb Code     8  usb_endp.o(i.EP2_OUT_Callback)
    GetEPRxAddr                              0x0800d939   Thumb Code    24  usb_regs.o(i.GetEPRxAddr)
    GetEPRxCount                             0x0800d959   Thumb Code    26  usb_regs.o(i.GetEPRxCount)
    GetEPTxAddr                              0x0800d97d   Thumb Code    22  usb_regs.o(i.GetEPTxAddr)
    Get_Max_Lun                              0x0800d99d   Thumb Code    20  usb_prop.o(i.Get_Max_Lun)
    Get_SerialNum                            0x0800d9b9   Thumb Code    62  hw_config.o(i.Get_SerialNum)
    In0_Process                              0x0800da01   Thumb Code    98  usb_core.o(i.In0_Process)
    Led_Config                               0x0800da71   Thumb Code    44  hw_config.o(i.Led_Config)
    Led_RW_OFF                               0x0800daa1   Thumb Code    14  hw_config.o(i.Led_RW_OFF)
    Led_RW_ON                                0x0800dab5   Thumb Code    14  hw_config.o(i.Led_RW_ON)
    MAL_Config                               0x0800dac9   Thumb Code    10  hw_config.o(i.MAL_Config)
    MAL_GetStatus                            0x0800dad3   Thumb Code    30  mass_mal.o(i.MAL_GetStatus)
    MAL_Init                                 0x0800daf1   Thumb Code    56  mass_mal.o(i.MAL_Init)
    MAL_Read                                 0x0800db35   Thumb Code    44  mass_mal.o(i.MAL_Read)
    MAL_Write                                0x0800db61   Thumb Code    38  mass_mal.o(i.MAL_Write)
    MASS_Data_Setup                          0x0800db89   Thumb Code    86  usb_prop.o(i.MASS_Data_Setup)
    MASS_GetConfigDescriptor                 0x0800dbe9   Thumb Code    14  usb_prop.o(i.MASS_GetConfigDescriptor)
    MASS_GetDeviceDescriptor                 0x0800dbfd   Thumb Code    14  usb_prop.o(i.MASS_GetDeviceDescriptor)
    MASS_GetStringDescriptor                 0x0800dc11   Thumb Code    32  usb_prop.o(i.MASS_GetStringDescriptor)
    MASS_Get_Interface_Setting               0x0800dc39   Thumb Code    22  usb_prop.o(i.MASS_Get_Interface_Setting)
    MASS_NoData_Setup                        0x0800dc51   Thumb Code    76  usb_prop.o(i.MASS_NoData_Setup)
    MASS_Reset                               0x0800dcad   Thumb Code   204  usb_prop.o(i.MASS_Reset)
    MASS_Status_In                           0x0800dd99   Thumb Code     2  usb_prop.o(i.MASS_Status_In)
    MASS_Status_Out                          0x0800dd9b   Thumb Code     2  usb_prop.o(i.MASS_Status_Out)
    MASS_init                                0x0800dd9d   Thumb Code    50  usb_prop.o(i.MASS_init)
    Mass_Storage_ClearFeature                0x0800dde1   Thumb Code    20  usb_prop.o(i.Mass_Storage_ClearFeature)
    Mass_Storage_In                          0x0800ddfd   Thumb Code   100  usb_bot.o(i.Mass_Storage_In)
    Mass_Storage_Out                         0x0800de71   Thumb Code   128  usb_bot.o(i.Mass_Storage_Out)
    Mass_Storage_SetConfiguration            0x0800df09   Thumb Code    36  usb_prop.o(i.Mass_Storage_SetConfiguration)
    Mass_Storage_SetDeviceAddress            0x0800df39   Thumb Code     8  usb_prop.o(i.Mass_Storage_SetDeviceAddress)
    NOP_Process                              0x0800df45   Thumb Code     2  usb_core.o(i.NOP_Process)
    Out0_Process                             0x0800e089   Thumb Code    70  usb_core.o(i.Out0_Process)
    PMAToUserBufferCopy                      0x0800e0d9   Thumb Code    34  usb_mem.o(i.PMAToUserBufferCopy)
    Post0_Process                            0x0800e101   Thumb Code    54  usb_core.o(i.Post0_Process)
    PowerOn                                  0x0800e149   Thumb Code    54  usb_pwr.o(i.PowerOn)
    Read_Memory                              0x0800e189   Thumb Code   232  memory.o(i.Read_Memory)
    SCSI_Address_Management                  0x0800e295   Thumb Code   126  usb_scsi.o(i.SCSI_Address_Management)
    SCSI_Format_Cmd                          0x0800e321   Thumb Code    44  usb_scsi.o(i.SCSI_Format_Cmd)
    SCSI_Inquiry_Cmd                         0x0800e351   Thumb Code    72  usb_scsi.o(i.SCSI_Inquiry_Cmd)
    SCSI_Invalid_Cmd                         0x0800e3ad   Thumb Code    64  usb_scsi.o(i.SCSI_Invalid_Cmd)
    SCSI_ModeSense10_Cmd                     0x0800e3f1   Thumb Code    14  usb_scsi.o(i.SCSI_ModeSense10_Cmd)
    SCSI_ModeSense6_Cmd                      0x0800e405   Thumb Code    14  usb_scsi.o(i.SCSI_ModeSense6_Cmd)
    SCSI_Read10_Cmd                          0x0800e419   Thumb Code   110  usb_scsi.o(i.SCSI_Read10_Cmd)
    SCSI_ReadCapacity10_Cmd                  0x0800e491   Thumb Code   138  usb_scsi.o(i.SCSI_ReadCapacity10_Cmd)
    SCSI_ReadFormatCapacity_Cmd              0x0800e52d   Thumb Code   120  usb_scsi.o(i.SCSI_ReadFormatCapacity_Cmd)
    SCSI_RequestSense_Cmd                    0x0800e5b5   Thumb Code    30  usb_scsi.o(i.SCSI_RequestSense_Cmd)
    SCSI_Start_Stop_Unit_Cmd                 0x0800e5dd   Thumb Code    14  usb_scsi.o(i.SCSI_Start_Stop_Unit_Cmd)
    SCSI_TestUnitReady_Cmd                   0x0800e5ed   Thumb Code    52  usb_scsi.o(i.SCSI_TestUnitReady_Cmd)
    SCSI_Verify10_Cmd                        0x0800e625   Thumb Code    58  usb_scsi.o(i.SCSI_Verify10_Cmd)
    SCSI_Write10_Cmd                         0x0800e665   Thumb Code   110  usb_scsi.o(i.SCSI_Write10_Cmd)
    SetBTABLE                                0x0800e6dd   Thumb Code    12  usb_regs.o(i.SetBTABLE)
    SetDeviceAddress                         0x0800e6ed   Thumb Code    62  usb_core.o(i.SetDeviceAddress)
    SetEPRxAddr                              0x0800e735   Thumb Code    26  usb_regs.o(i.SetEPRxAddr)
    SetEPRxCount                             0x0800e759   Thumb Code    66  usb_regs.o(i.SetEPRxCount)
    SetEPRxStatus                            0x0800e7a5   Thumb Code    52  usb_regs.o(i.SetEPRxStatus)
    SetEPRxValid                             0x0800e7dd   Thumb Code    38  usb_regs.o(i.SetEPRxValid)
    SetEPTxAddr                              0x0800e809   Thumb Code    24  usb_regs.o(i.SetEPTxAddr)
    SetEPTxCount                             0x0800e829   Thumb Code    20  usb_regs.o(i.SetEPTxCount)
    SetEPTxStatus                            0x0800e845   Thumb Code    52  usb_regs.o(i.SetEPTxStatus)
    SetEPType                                0x0800e87d   Thumb Code    22  usb_regs.o(i.SetEPType)
    Set_CSW                                  0x0800e899   Thumb Code    54  usb_bot.o(i.Set_CSW)
    Set_Scsi_Sense_Data                      0x0800e8dd   Thumb Code     8  usb_scsi.o(i.Set_Scsi_Sense_Data)
    Set_System                               0x0800e8e9   Thumb Code    12  hw_config.o(i.Set_System)
    Set_USBClock                             0x0800e8f5   Thumb Code    18  hw_config.o(i.Set_USBClock)
    Setup0_Process                           0x0800e909   Thumb Code   170  usb_core.o(i.Setup0_Process)
    Standard_ClearFeature                    0x0800e9c1   Thumb Code   308  usb_core.o(i.Standard_ClearFeature)
    Standard_GetConfiguration                0x0800eb09   Thumb Code    34  usb_core.o(i.Standard_GetConfiguration)
    Standard_GetDescriptorData               0x0800eb35   Thumb Code    32  usb_core.o(i.Standard_GetDescriptorData)
    Standard_GetInterface                    0x0800eb59   Thumb Code    34  usb_core.o(i.Standard_GetInterface)
    Standard_GetStatus                       0x0800eb85   Thumb Code   230  usb_core.o(i.Standard_GetStatus)
    Standard_SetConfiguration                0x0800ec7d   Thumb Code    60  usb_core.o(i.Standard_SetConfiguration)
    Standard_SetDeviceFeature                0x0800ecc5   Thumb Code    30  usb_core.o(i.Standard_SetDeviceFeature)
    Standard_SetEndPointFeature              0x0800eced   Thumb Code   168  usb_core.o(i.Standard_SetEndPointFeature)
    Standard_SetInterface                    0x0800eda5   Thumb Code    96  usb_core.o(i.Standard_SetInterface)
    Transfer_Data_Request                    0x0800ee11   Thumb Code    54  usb_bot.o(i.Transfer_Data_Request)
    USB_Cable_Config                         0x0800ee51   Thumb Code    30  hw_config.o(i.USB_Cable_Config)
    USB_Disconnect_Config                    0x0800ee75   Thumb Code    40  hw_config.o(i.USB_Disconnect_Config)
    USB_Init                                 0x0800eea1   Thumb Code    36  usb_init.o(i.USB_Init)
    USB_Interrupts_Config                    0x0800eedd   Thumb Code    56  hw_config.o(i.USB_Interrupts_Config)
    USB_Istr                                 0x0800ef15   Thumb Code    62  usb_istr.o(i.USB_Istr)
    USB_SIL_Write                            0x0800ef65   Thumb Code    46  usb_sil.o(i.USB_SIL_Write)
    USB_cable                                0x0800ef93   Thumb Code    24  usb_main.o(i.USB_cable)
    UserToPMABufferCopy                      0x0800efad   Thumb Code    52  usb_mem.o(i.UserToPMABufferCopy)
    Write_Memory                             0x0800efe5   Thumb Code   260  memory.o(i.Write_Memory)
    __ARM_fpclassify                         0x0800f115   Thumb Code    40  fpclassify.o(i.__ARM_fpclassify)
    __ieee754_rem_pio2                       0x0800f13d   Thumb Code   828  rred.o(i.__ieee754_rem_pio2)
    __kernel_cos                             0x0800f4c1   Thumb Code   230  cos_i.o(i.__kernel_cos)
    __kernel_poly                            0x0800f5bd   Thumb Code   170  poly.o(i.__kernel_poly)
    __kernel_sin                             0x0800f669   Thumb Code   224  sin_i.o(i.__kernel_sin)
    __mathlib_dbl_underflow                  0x0800f755   Thumb Code    10  dunder.o(i.__mathlib_dbl_underflow)
    _is_digit                                0x0800f765   Thumb Code    14  __printf_wp.o(i._is_digit)
    asin                                     0x0800f775   Thumb Code   584  asin.o(i.asin)
    atan                                     0x0800f9f1   Thumb Code   478  atan.o(i.atan)
    cos                                      0x0800fc15   Thumb Code   164  cos.o(i.cos)
    sin                                      0x0800fcc1   Thumb Code   166  sin.o(i.sin)
    sqrt                                     0x0800fd71   Thumb Code    76  sqrt.o(i.sqrt)
    __aeabi_d2f                              0x0800fdbd   Thumb Code     0  d2f.o(x$fpl$d2f)
    _d2f                                     0x0800fdbd   Thumb Code    98  d2f.o(x$fpl$d2f)
    __aeabi_dadd                             0x0800fe21   Thumb Code     0  daddsub_clz.o(x$fpl$dadd)
    _dadd                                    0x0800fe21   Thumb Code   332  daddsub_clz.o(x$fpl$dadd)
    __fpl_dcheck_NaN1                        0x0800ff71   Thumb Code    10  dcheck1.o(x$fpl$dcheck1)
    __fpl_dcmp_Inf                           0x0800ff81   Thumb Code    24  dcmpi.o(x$fpl$dcmpinf)
    __aeabi_ddiv                             0x0800ff99   Thumb Code     0  ddiv.o(x$fpl$ddiv)
    _ddiv                                    0x0800ff99   Thumb Code   552  ddiv.o(x$fpl$ddiv)
    __aeabi_d2iz                             0x08010249   Thumb Code     0  dfix.o(x$fpl$dfix)
    _dfix                                    0x08010249   Thumb Code    94  dfix.o(x$fpl$dfix)
    __aeabi_d2uiz                            0x080102a9   Thumb Code     0  dfixu.o(x$fpl$dfixu)
    _dfixu                                   0x080102a9   Thumb Code    90  dfixu.o(x$fpl$dfixu)
    __aeabi_i2d                              0x08010303   Thumb Code     0  dflt_clz.o(x$fpl$dflt)
    _dflt                                    0x08010303   Thumb Code    46  dflt_clz.o(x$fpl$dflt)
    __aeabi_ui2d                             0x08010331   Thumb Code     0  dflt_clz.o(x$fpl$dfltu)
    _dfltu                                   0x08010331   Thumb Code    38  dflt_clz.o(x$fpl$dfltu)
    __aeabi_cdcmple                          0x08010359   Thumb Code     0  dleqf.o(x$fpl$dleqf)
    _dcmple                                  0x08010359   Thumb Code   120  dleqf.o(x$fpl$dleqf)
    __fpl_dcmple_InfNaN                      0x080103bb   Thumb Code     0  dleqf.o(x$fpl$dleqf)
    __aeabi_dmul                             0x080103d1   Thumb Code     0  dmul.o(x$fpl$dmul)
    _dmul                                    0x080103d1   Thumb Code   332  dmul.o(x$fpl$dmul)
    __fpl_dnaninf                            0x08010525   Thumb Code   156  dnaninf.o(x$fpl$dnaninf)
    __fpl_dretinf                            0x080105c1   Thumb Code    12  dretinf.o(x$fpl$dretinf)
    __aeabi_cdrcmple                         0x080105cd   Thumb Code     0  drleqf.o(x$fpl$drleqf)
    _drcmple                                 0x080105cd   Thumb Code   108  drleqf.o(x$fpl$drleqf)
    __aeabi_drsub                            0x08010639   Thumb Code     0  daddsub_clz.o(x$fpl$drsb)
    _drsb                                    0x08010639   Thumb Code    22  daddsub_clz.o(x$fpl$drsb)
    _dsqrt                                   0x08010651   Thumb Code   456  dsqrt_noumaal.o(x$fpl$dsqrt)
    __aeabi_dsub                             0x0801081d   Thumb Code     0  daddsub_clz.o(x$fpl$dsub)
    _dsub                                    0x0801081d   Thumb Code   464  daddsub_clz.o(x$fpl$dsub)
    __aeabi_f2d                              0x080109f1   Thumb Code     0  f2d.o(x$fpl$f2d)
    _f2d                                     0x080109f1   Thumb Code    86  f2d.o(x$fpl$f2d)
    __aeabi_fadd                             0x08010a49   Thumb Code     0  faddsub_clz.o(x$fpl$fadd)
    _fadd                                    0x08010a49   Thumb Code   196  faddsub_clz.o(x$fpl$fadd)
    __fpl_fcmp_Inf                           0x08010b0d   Thumb Code    24  fcmpi.o(x$fpl$fcmpinf)
    __aeabi_fdiv                             0x08010b25   Thumb Code     0  fdiv.o(x$fpl$fdiv)
    _fdiv                                    0x08010b25   Thumb Code   384  fdiv.o(x$fpl$fdiv)
    __aeabi_cfcmpeq                          0x08010ca9   Thumb Code     0  feqf.o(x$fpl$feqf)
    _fcmpeq                                  0x08010ca9   Thumb Code   104  feqf.o(x$fpl$feqf)
    __aeabi_f2iz                             0x08010d11   Thumb Code     0  ffix.o(x$fpl$ffix)
    _ffix                                    0x08010d11   Thumb Code    54  ffix.o(x$fpl$ffix)
    __aeabi_f2uiz                            0x08010d49   Thumb Code     0  ffixu.o(x$fpl$ffixu)
    _ffixu                                   0x08010d49   Thumb Code    62  ffixu.o(x$fpl$ffixu)
    __aeabi_i2f                              0x08010d89   Thumb Code     0  fflt_clz.o(x$fpl$fflt)
    _fflt                                    0x08010d89   Thumb Code    48  fflt_clz.o(x$fpl$fflt)
    __aeabi_ui2f                             0x08010db9   Thumb Code     0  fflt_clz.o(x$fpl$ffltu)
    _ffltu                                   0x08010db9   Thumb Code    38  fflt_clz.o(x$fpl$ffltu)
    __aeabi_cfcmple                          0x08010de1   Thumb Code     0  fleqf.o(x$fpl$fleqf)
    _fcmple                                  0x08010de1   Thumb Code   104  fleqf.o(x$fpl$fleqf)
    __fpl_fcmple_InfNaN                      0x08010e33   Thumb Code     0  fleqf.o(x$fpl$fleqf)
    __aeabi_fmul                             0x08010e49   Thumb Code     0  fmul.o(x$fpl$fmul)
    _fmul                                    0x08010e49   Thumb Code   258  fmul.o(x$fpl$fmul)
    __fpl_fnaninf                            0x08010f4b   Thumb Code   140  fnaninf.o(x$fpl$fnaninf)
    _fp_init                                 0x08010fd7   Thumb Code    14  fpinit.o(x$fpl$fpinit)
    __fplib_config_pureend_doubles           0x08010fe3   Thumb Code     0  fpinit.o(x$fpl$fpinit)
    __fpl_fretinf                            0x08010fe5   Thumb Code    10  fretinf.o(x$fpl$fretinf)
    __aeabi_cfrcmple                         0x08010fef   Thumb Code     0  frleqf.o(x$fpl$frleqf)
    _frcmple                                 0x08010fef   Thumb Code    98  frleqf.o(x$fpl$frleqf)
    __aeabi_frsub                            0x08011051   Thumb Code     0  faddsub_clz.o(x$fpl$frsb)
    _frsb                                    0x08011051   Thumb Code    20  faddsub_clz.o(x$fpl$frsb)
    __aeabi_fsub                             0x08011065   Thumb Code     0  faddsub_clz.o(x$fpl$fsub)
    _fsub                                    0x08011065   Thumb Code   234  faddsub_clz.o(x$fpl$fsub)
    __fpl_return_NaN                         0x0801114f   Thumb Code   100  retnan.o(x$fpl$retnan)
    __ARM_scalbn                             0x080111b3   Thumb Code    92  scalbn.o(x$fpl$scalbn)
    __fpl_cmpreturn                          0x0801120f   Thumb Code    48  trapv.o(x$fpl$trapveneer)
    __I$use$fp                               0x0801123f   Thumb Code     0  usenofp.o(x$fpl$usenofp)
    screen_code_custom                       0x0801123e   Data        1536  lcd19264.o(.constdata)
    KeyCodeMap                               0x0801183e   Data          25  keyboard.o(.constdata)
    str                                      0x0801189a   Data        2960  axis4.o(.constdata)
    MASS_DeviceDescriptor                    0x0801242a   Data          18  usb_desc.o(.constdata)
    MASS_ConfigDescriptor                    0x0801243c   Data          32  usb_desc.o(.constdata)
    MASS_StringLangID                        0x0801245c   Data           4  usb_desc.o(.constdata)
    MASS_StringVendor                        0x08012460   Data          38  usb_desc.o(.constdata)
    MASS_StringProduct                       0x08012486   Data          38  usb_desc.o(.constdata)
    MASS_StringInterface                     0x080124ac   Data          16  usb_desc.o(.constdata)
    Region$$Table$$Base                      0x08012700   Number         0  anon$$obj.o(Region$$Table)
    Region$$Table$$Limit                     0x08012720   Number         0  anon$$obj.o(Region$$Table)
    SystemCoreClock                          0x20000000   Data           4  system_stm32f10x.o(.data)
    AHBPrescTable                            0x20000004   Data          16  system_stm32f10x.o(.data)
    KeySta                                   0x20000014   Data          25  keyboard.o(.data)
    RmtSta                                   0x20000060   Data           1  remote.o(.data)
    RmtRec                                   0x20000064   Data           4  remote.o(.data)
    Dval                                     0x20000068   Data           2  remote.o(.data)
    Mass_Memory_Size                         0x2000006c   Data           4  flash.o(.data)
    Pulse0Num1                               0x20000070   Data           2  fsmc.o(.data)
    Pulse0Num2                               0x20000072   Data           2  fsmc.o(.data)
    Pulse0Wid1                               0x20000074   Data           2  fsmc.o(.data)
    Pulse0Wid2                               0x20000076   Data           2  fsmc.o(.data)
    Pulse1Num1                               0x20000078   Data           2  fsmc.o(.data)
    Pulse1Num2                               0x2000007a   Data           2  fsmc.o(.data)
    Pulse1Wid1                               0x2000007c   Data           2  fsmc.o(.data)
    Pulse1Wid2                               0x2000007e   Data           2  fsmc.o(.data)
    Pulse2Num1                               0x20000080   Data           2  fsmc.o(.data)
    Pulse2Num2                               0x20000082   Data           2  fsmc.o(.data)
    Pulse2Wid1                               0x20000084   Data           2  fsmc.o(.data)
    Pulse2Wid2                               0x20000086   Data           2  fsmc.o(.data)
    Pulse3Num1                               0x20000088   Data           2  fsmc.o(.data)
    Pulse3Num2                               0x2000008a   Data           2  fsmc.o(.data)
    Pulse3Wid1                               0x2000008c   Data           2  fsmc.o(.data)
    Pulse3Wid2                               0x2000008e   Data           2  fsmc.o(.data)
    Pulse4Num1                               0x20000090   Data           2  fsmc.o(.data)
    Pulse4Num2                               0x20000092   Data           2  fsmc.o(.data)
    Pulse4Wid1                               0x20000094   Data           2  fsmc.o(.data)
    Pulse4Wid2                               0x20000096   Data           2  fsmc.o(.data)
    Pulse5Num1                               0x20000098   Data           2  fsmc.o(.data)
    Pulse5Num2                               0x2000009a   Data           2  fsmc.o(.data)
    Pulse5Wid1                               0x2000009c   Data           2  fsmc.o(.data)
    Pulse5Wid2                               0x2000009e   Data           2  fsmc.o(.data)
    USART_RX_STA                             0x200000b0   Data           2  usart.o(.data)
    Usart_rx_overtime                        0x200000b2   Data           1  usart.o(.data)
    __stdout                                 0x200000b4   Data           4  usart.o(.data)
    KeyState                                 0x200000cc   Data           1  axis4.o(.data)
    PreKeyState                              0x200000cd   Data           1  axis4.o(.data)
    CurLastPos                               0x200000ce   Data           1  axis4.o(.data)
    ArrLastPos                               0x200000cf   Data           1  axis4.o(.data)
    ShuaPingShiJian                          0x200000d0   Data           1  axis4.o(.data)
    ShaoMiaoKeyShiJian                       0x200000d1   Data           1  axis4.o(.data)
    UpdtScrnBffrNm                           0x200000d2   Data           2  axis4.o(.data)
    LoadCommandInterval                      0x200000d4   Data           1  axis4.o(.data)
    LEDTimer                                 0x200000d5   Data           1  axis4.o(.data)
    FlagHuiLing                              0x200000d6   Data           1  axis4.o(.data)
    SystemState                              0x200000d7   Data           1  axis4.o(.data)
    InterplotMode                            0x200000d8   Data           1  axis4.o(.data)
    DAInterplotMode                          0x200000d9   Data           1  axis4.o(.data)
    GCode                                    0x200000da   Data           1  axis4.o(.data)
    SysPara                                  0x200000dc   Data         128  axis4.o(.data)
    OutputVar                                0x2000015c   Data           2  axis4.o(.data)
    RunStateX                                0x2000015e   Data           1  axis4.o(.data)
    RunStateY                                0x2000015f   Data           1  axis4.o(.data)
    RunStateZ                                0x20000160   Data           1  axis4.o(.data)
    RunStateT                                0x20000161   Data           1  axis4.o(.data)
    DARunStateX                              0x20000162   Data           1  axis4.o(.data)
    DARunStateY                              0x20000163   Data           1  axis4.o(.data)
    DARunStateZ                              0x20000164   Data           1  axis4.o(.data)
    DARunStateT                              0x20000165   Data           1  axis4.o(.data)
    SpeedDirectionX                          0x20000166   Data           1  axis4.o(.data)
    SpeedDirectionY                          0x20000167   Data           1  axis4.o(.data)
    SpeedDirectionZ                          0x20000168   Data           1  axis4.o(.data)
    SpeedDirectionT                          0x20000169   Data           1  axis4.o(.data)
    PulseDLX                                 0x2000016c   Data           4  axis4.o(.data)
    PulseDLY                                 0x20000170   Data           4  axis4.o(.data)
    PulseDLZ                                 0x20000174   Data           4  axis4.o(.data)
    PulseDLT                                 0x20000178   Data           4  axis4.o(.data)
    AccelerateX                              0x2000017c   Data           4  axis4.o(.data)
    AccelerateY                              0x20000180   Data           4  axis4.o(.data)
    AccelerateZ                              0x20000184   Data           4  axis4.o(.data)
    AccelerateT                              0x20000188   Data           4  axis4.o(.data)
    BianChengJuLiX                           0x2000018c   Data           4  axis4.o(.data)
    BianChengJuLiY                           0x20000190   Data           4  axis4.o(.data)
    BianChengJuLiZ                           0x20000194   Data           4  axis4.o(.data)
    BianChengJuLiT                           0x20000198   Data           4  axis4.o(.data)
    BianChengSuDuX                           0x2000019c   Data           4  axis4.o(.data)
    BianChengSuDuY                           0x200001a0   Data           4  axis4.o(.data)
    BianChengSuDuZ                           0x200001a4   Data           4  axis4.o(.data)
    BianChengSuDuT                           0x200001a8   Data           4  axis4.o(.data)
    XingHaoDianPing                          0x200001ac   Data           2  axis4.o(.data)
    FanXiangJianXiX                          0x200001b0   Data           4  axis4.o(.data)
    FanXiangJianXiY                          0x200001b4   Data           4  axis4.o(.data)
    FanXiangJianXiZ                          0x200001b8   Data           4  axis4.o(.data)
    FanXiangJianXiT                          0x200001bc   Data           4  axis4.o(.data)
    IOINState                                0x200001c0   Data           1  axis4.o(.data)
    flag_bj                                  0x200001c1   Data           1  axis4.o(.data)
    AxisPuleFlag                             0x200001c2   Data           1  axis4.o(.data)
    FlagZhanTing                             0x200001c3   Data           1  axis4.o(.data)
    IntrpltEndSpeedX                         0x200001c4   Data           4  axis4.o(.data)
    IntrpltEndSpeedY                         0x200001c8   Data           4  axis4.o(.data)
    IntrpltEndSpeedZ                         0x200001cc   Data           4  axis4.o(.data)
    IntrpltEndSpeedT                         0x200001d0   Data           4  axis4.o(.data)
    QueryParaIndex                           0x200001d4   Data           1  axis4.o(.data)
    AnlogScope                               0x200001d6   Data           2  axis4.o(.data)
    EnableAnalog                             0x200001d8   Data           1  axis4.o(.data)
    XInpltAcc                                0x200001dc   Data           4  axis4.o(.data)
    YInpltAcc                                0x200001e0   Data           4  axis4.o(.data)
    ZInpltAcc                                0x200001e4   Data           4  axis4.o(.data)
    TInpltAcc                                0x200001e8   Data           4  axis4.o(.data)
    DelayCount                               0x200001ec   Data           2  axis4.o(.data)
    EnaAnalogX                               0x200001ee   Data           1  axis4.o(.data)
    EnaAnalogY                               0x200001ef   Data           1  axis4.o(.data)
    EnaAnalogZ                               0x200001f0   Data           1  axis4.o(.data)
    EnaAnalogT                               0x200001f1   Data           1  axis4.o(.data)
    FlagG1Terminate                          0x200001f2   Data           1  axis4.o(.data)
    FlagProgamepause                         0x200001f3   Data           1  axis4.o(.data)
    VersionInfo                              0x200001f4   Data           4  axis4.o(.data)
    IOSignal                                 0x200001f8   Data           4  axis4.o(.data)
    EncoderCount_X                           0x200001fc   Data           4  axis4.o(.data)
    EncoderCount_Y                           0x20000200   Data           4  axis4.o(.data)
    EncoderCount_Z                           0x20000204   Data           4  axis4.o(.data)
    EncoderCount_T                           0x20000208   Data           4  axis4.o(.data)
    IntInputStt                              0x2000020c   Data           4  axis4.o(.data)
    IntrpltCmmndLngth                        0x20000210   Data           4  axis4.o(.data)
    IntrpltedLngth                           0x20000214   Data           4  axis4.o(.data)
    RtX                                      0x20000218   Data           4  axis4.o(.data)
    RtY                                      0x2000021c   Data           4  axis4.o(.data)
    RtZ                                      0x20000220   Data           4  axis4.o(.data)
    RtT                                      0x20000224   Data           4  axis4.o(.data)
    SvLngth                                  0x20000228   Data           4  axis4.o(.data)
    DirDAX                                   0x2000022c   Data           1  axis4.o(.data)
    DirDAY                                   0x2000022d   Data           1  axis4.o(.data)
    DirDAZ                                   0x2000022e   Data           1  axis4.o(.data)
    DirDAT                                   0x2000022f   Data           1  axis4.o(.data)
    XIntrpltedLngthLL                        0x20000230   Data           4  axis4.o(.data)
    YIntrpltedLngthLL                        0x20000234   Data           4  axis4.o(.data)
    ZIntrpltedLngthLL                        0x20000238   Data           4  axis4.o(.data)
    TIntrpltedLngthLL                        0x2000023c   Data           4  axis4.o(.data)
    XIntrpltCmmndLngth                       0x20000240   Data           4  axis4.o(.data)
    YIntrpltCmmndLngth                       0x20000244   Data           4  axis4.o(.data)
    ZIntrpltCmmndLngth                       0x20000248   Data           4  axis4.o(.data)
    TIntrpltCmmndLngth                       0x2000024c   Data           4  axis4.o(.data)
    XIntrpltedLngth                          0x20000250   Data           4  axis4.o(.data)
    YIntrpltedLngth                          0x20000254   Data           4  axis4.o(.data)
    ZIntrpltedLngth                          0x20000258   Data           4  axis4.o(.data)
    TIntrpltedLngth                          0x2000025c   Data           4  axis4.o(.data)
    SpeedIntplt                              0x20000260   Data           4  axis4.o(.data)
    XSvLngth                                 0x20000264   Data           4  axis4.o(.data)
    YSvLngth                                 0x20000268   Data           4  axis4.o(.data)
    ZSvLngth                                 0x2000026c   Data           4  axis4.o(.data)
    TSvLngth                                 0x20000270   Data           4  axis4.o(.data)
    XSpeedIntplt                             0x20000274   Data           4  axis4.o(.data)
    YSpeedIntplt                             0x20000278   Data           4  axis4.o(.data)
    ZSpeedIntplt                             0x2000027c   Data           4  axis4.o(.data)
    TSpeedIntplt                             0x20000280   Data           4  axis4.o(.data)
    StartX                                   0x20000284   Data           4  axis4.o(.data)
    StartY                                   0x20000288   Data           4  axis4.o(.data)
    StartZ                                   0x2000028c   Data           4  axis4.o(.data)
    StartT                                   0x20000290   Data           4  axis4.o(.data)
    EndX                                     0x20000294   Data           4  axis4.o(.data)
    EndY                                     0x20000298   Data           4  axis4.o(.data)
    EndZ                                     0x2000029c   Data           4  axis4.o(.data)
    EndT                                     0x200002a0   Data           4  axis4.o(.data)
    EndXi                                    0x200002a4   Data           4  axis4.o(.data)
    EndYi                                    0x200002a8   Data           4  axis4.o(.data)
    EndZi                                    0x200002ac   Data           4  axis4.o(.data)
    EndTi                                    0x200002b0   Data           4  axis4.o(.data)
    M_de_ox                                  0x200002b4   Data           4  axis4.o(.data)
    M_de_oy                                  0x200002b8   Data           4  axis4.o(.data)
    CirSAng                                  0x200002bc   Data           4  axis4.o(.data)
    RadiusCircle                             0x200002c0   Data           4  axis4.o(.data)
    AngleInterploted                         0x200002c4   Data           4  axis4.o(.data)
    Xflag_bj                                 0x200002c8   Data           1  axis4.o(.data)
    Yflag_bj                                 0x200002c9   Data           1  axis4.o(.data)
    Zflag_bj                                 0x200002ca   Data           1  axis4.o(.data)
    Tflag_bj                                 0x200002cb   Data           1  axis4.o(.data)
    SpeedFaXia                               0x200002cc   Data           2  axis4.o(.data)
    PCDownMCUCmmndIndex                      0x200002ce   Data           1  axis4.o(.data)
    Timer_led                                0x200002d0   Data           2  axis4.o(.data)
    Timer_Adc                                0x200002d2   Data           2  axis4.o(.data)
    Timer_Screen                             0x200002d4   Data           2  axis4.o(.data)
    Timer_Home                               0x200002d6   Data           2  axis4.o(.data)
    Timer_Key                                0x200002d8   Data           2  axis4.o(.data)
    Timer_Uart                               0x200002da   Data           2  axis4.o(.data)
    i_AD_DMA                                 0x200002dc   Data           1  axis4.o(.data)
    SaveRState                               0x200002de   Data           2  usb_int.o(.data)
    SaveTState                               0x200002e0   Data           2  usb_int.o(.data)
    bIntPackSOF                              0x200002e4   Data           1  usb_istr.o(.data)
    pEpInt_IN                                0x200002e8   Data          28  usb_istr.o(.data)
    pEpInt_OUT                               0x20000304   Data          28  usb_istr.o(.data)
    wIstr                                    0x20000320   Data           2  usb_istr.o(.data)
    Data_Mul_MaxPacketSize                   0x20000322   Data           1  usb_core.o(.data)
    StatusInfo                               0x20000324   Data           2  usb_core.o(.data)
    EPindex                                  0x20000328   Data           1  usb_init.o(.data)
    pInformation                             0x2000032c   Data           4  usb_init.o(.data)
    pProperty                                0x20000330   Data           4  usb_init.o(.data)
    SaveState                                0x20000334   Data           2  usb_init.o(.data)
    wInterrupt_Mask                          0x20000336   Data           2  usb_init.o(.data)
    pUser_Standard_Requests                  0x20000338   Data           4  usb_init.o(.data)
    Device_Table                             0x2000033c   Data           2  usb_prop.o(.data)
    Device_Property                          0x20000340   Data          48  usb_prop.o(.data)
    User_Standard_Requests                   0x20000370   Data          36  usb_prop.o(.data)
    Device_Descriptor                        0x20000394   Data           8  usb_prop.o(.data)
    Config_Descriptor                        0x2000039c   Data           8  usb_prop.o(.data)
    String_Descriptor                        0x200003a4   Data          40  usb_prop.o(.data)
    Max_Lun                                  0x200003cc   Data           4  mass_mal.o(.data)
    Mass_Block_Size                          0x200003d4   Data           4  mass_mal.o(.data)
    Mass_Block_Count                         0x200003d8   Data           4  mass_mal.o(.data)
    Bot_State                                0x200003dc   Data           1  usb_bot.o(.data)
    Data_Len                                 0x200003de   Data           2  usb_bot.o(.data)
    SCSI_LBA                                 0x200003e0   Data           4  usb_bot.o(.data)
    SCSI_BlkLen                              0x200003e4   Data           4  usb_bot.o(.data)
    MASS_StringSerial                        0x200003e8   Data          26  usb_desc.o(.data)
    bDeviceState                             0x20000404   Data           4  usb_pwr.o(.data)
    fSuspendEnabled                          0x20000408   Data           1  usb_pwr.o(.data)
    ResumeS                                  0x20000409   Data           2  usb_pwr.o(.data)
    Block_Read_count                         0x2000040c   Data           4  memory.o(.data)
    Counter                                  0x20000410   Data           4  memory.o(.data)
    TransferState                            0x20000414   Data           1  memory.o(.data)
    Block_offset                             0x20000428   Data           4  memory.o(.data)
    Idx                                      0x2000042c   Data           4  memory.o(.data)
    Page00_Inquiry_Data                      0x20000430   Data           5  scsi_data.o(.data)
    Standard_Inquiry_Data1                   0x20000435   Data          36  scsi_data.o(.data)
    Standard_Inquiry_Data2                   0x20000459   Data          36  scsi_data.o(.data)
    Standard_Inquiry_Data3                   0x2000047d   Data          36  scsi_data.o(.data)
    Mode_Sense6_data                         0x200004a1   Data           4  scsi_data.o(.data)
    Mode_Sense10_data                        0x200004a5   Data           8  scsi_data.o(.data)
    Scsi_Sense_Data                          0x200004ad   Data          18  scsi_data.o(.data)
    ReadCapacity10_Data                      0x200004bf   Data           8  scsi_data.o(.data)
    ReadFormatCapacity_Data                  0x200004c7   Data          12  scsi_data.o(.data)
    LCD19264_GRAM                            0x200004d4   Data        1536  lcd19264.o(.bss)
    USART_RX_BUF                             0x20000ad4   Data         100  usart.o(.bss)
    EditParaTmp                              0x20000b38   Data          11  axis4.o(.bss)
    reterr_buf                               0x20000b43   Data          14  axis4.o(.bss)
    stGCodeCmmnd                             0x20000b54   Data          60  axis4.o(.bss)
    stMCUUpPCCmndStt                         0x20000b90   Data          12  axis4.o(.bss)
    AxisPulseWidBuf                          0x20000b9c   Data         102  axis4.o(.bss)
    AD_Value                                 0x20000c02   Data          12  axis4.o(.bss)
    Device_Info                              0x20000c10   Data          28  usb_init.o(.bss)
    Bulk_Data_Buff                           0x20000c2c   Data          64  usb_bot.o(.bss)
    CBW                                      0x20000c6c   Data          32  usb_bot.o(.bss)
    CSW                                      0x20000c8c   Data          16  usb_bot.o(.bss)
    Data_Buffer                              0x20000c9c   Data        4096  memory.o(.bss)
    __libspace_start                         0x20001c9c   Data          96  libspace.o(.bss)
    __temporary_stack_top$libspace           0x20001cfc   Data           0  libspace.o(.bss)



==============================================================================

Memory Map of the image

  Image Entry point : 0x08000131

  Load Region LR_IROM1 (Base: 0x08000000, Size: 0x00012bf4, Max: 0x00040000, ABSOLUTE, COMPRESSED[0x00012838])

    Execution Region ER_IROM1 (Base: 0x08000000, Size: 0x00012720, Max: 0x00040000, ABSOLUTE)

    Base Addr    Size         Type   Attr      Idx    E Section Name        Object

    0x08000000   0x00000130   Data   RO          529    RESET               startup_stm32f10x_hd.o
    0x08000130   0x00000008   Code   RO         2230  * !!!main             c_w.l(__main.o)
    0x08000138   0x00000034   Code   RO         2564    !!!scatter          c_w.l(__scatter.o)
    0x0800016c   0x0000005a   Code   RO         2562    !!dczerorl2         c_w.l(__dczerorl2.o)
    0x080001c6   0x00000002   PAD
    0x080001c8   0x0000001c   Code   RO         2566    !!handler_zi        c_w.l(__scatter_zi.o)
    0x080001e4   0x00000000   Code   RO         2223    .ARM.Collect$$_printf_percent$$00000000  c_w.l(_printf_percent.o)
    0x080001e4   0x00000006   Code   RO         2222    .ARM.Collect$$_printf_percent$$00000009  c_w.l(_printf_d.o)
    0x080001ea   0x00000006   Code   RO         2221    .ARM.Collect$$_printf_percent$$0000000C  c_w.l(_printf_x.o)
    0x080001f0   0x00000004   Code   RO         2347    .ARM.Collect$$_printf_percent$$00000017  c_w.l(_printf_percent_end.o)
    0x080001f4   0x00000006   Code   RO         2435    .ARM.Collect$$libinit$$00000000  c_w.l(libinit.o)
    0x080001fa   0x00000000   Code   RO         2442    .ARM.Collect$$libinit$$00000006  c_w.l(libinit2.o)
    0x080001fa   0x00000000   Code   RO         2444    .ARM.Collect$$libinit$$00000008  c_w.l(libinit2.o)
    0x080001fa   0x00000000   Code   RO         2446    .ARM.Collect$$libinit$$0000000A  c_w.l(libinit2.o)
    0x080001fa   0x00000000   Code   RO         2449    .ARM.Collect$$libinit$$0000000D  c_w.l(libinit2.o)
    0x080001fa   0x00000000   Code   RO         2451    .ARM.Collect$$libinit$$0000000F  c_w.l(libinit2.o)
    0x080001fa   0x00000000   Code   RO         2453    .ARM.Collect$$libinit$$00000011  c_w.l(libinit2.o)
    0x080001fa   0x00000000   Code   RO         2455    .ARM.Collect$$libinit$$00000013  c_w.l(libinit2.o)
    0x080001fa   0x00000000   Code   RO         2457    .ARM.Collect$$libinit$$00000015  c_w.l(libinit2.o)
    0x080001fa   0x00000000   Code   RO         2459    .ARM.Collect$$libinit$$00000017  c_w.l(libinit2.o)
    0x080001fa   0x00000000   Code   RO         2461    .ARM.Collect$$libinit$$00000019  c_w.l(libinit2.o)
    0x080001fa   0x00000000   Code   RO         2463    .ARM.Collect$$libinit$$0000001B  c_w.l(libinit2.o)
    0x080001fa   0x00000000   Code   RO         2465    .ARM.Collect$$libinit$$0000001D  c_w.l(libinit2.o)
    0x080001fa   0x00000000   Code   RO         2467    .ARM.Collect$$libinit$$0000001F  c_w.l(libinit2.o)
    0x080001fa   0x00000000   Code   RO         2469    .ARM.Collect$$libinit$$00000021  c_w.l(libinit2.o)
    0x080001fa   0x00000000   Code   RO         2473    .ARM.Collect$$libinit$$00000028  c_w.l(libinit2.o)
    0x080001fa   0x00000000   Code   RO         2475    .ARM.Collect$$libinit$$0000002A  c_w.l(libinit2.o)
    0x080001fa   0x00000000   Code   RO         2477    .ARM.Collect$$libinit$$0000002C  c_w.l(libinit2.o)
    0x080001fa   0x00000000   Code   RO         2479    .ARM.Collect$$libinit$$0000002E  c_w.l(libinit2.o)
    0x080001fa   0x00000002   Code   RO         2480    .ARM.Collect$$libinit$$0000002F  c_w.l(libinit2.o)
    0x080001fc   0x00000002   Code   RO         2505    .ARM.Collect$$libshutdown$$00000000  c_w.l(libshutdown.o)
    0x080001fe   0x00000000   Code   RO         2516    .ARM.Collect$$libshutdown$$00000003  c_w.l(libshutdown2.o)
    0x080001fe   0x00000000   Code   RO         2519    .ARM.Collect$$libshutdown$$00000006  c_w.l(libshutdown2.o)
    0x080001fe   0x00000000   Code   RO         2522    .ARM.Collect$$libshutdown$$00000009  c_w.l(libshutdown2.o)
    0x080001fe   0x00000000   Code   RO         2524    .ARM.Collect$$libshutdown$$0000000B  c_w.l(libshutdown2.o)
    0x080001fe   0x00000000   Code   RO         2527    .ARM.Collect$$libshutdown$$0000000E  c_w.l(libshutdown2.o)
    0x080001fe   0x00000002   Code   RO         2528    .ARM.Collect$$libshutdown$$0000000F  c_w.l(libshutdown2.o)
    0x08000200   0x00000000   Code   RO         2340    .ARM.Collect$$rtentry$$00000000  c_w.l(rtentry.o)
    0x08000200   0x00000000   Code   RO         2390    .ARM.Collect$$rtentry$$00000002  c_w.l(rtentry2.o)
    0x08000200   0x00000006   Code   RO         2402    .ARM.Collect$$rtentry$$00000004  c_w.l(rtentry4.o)
    0x08000206   0x00000000   Code   RO         2392    .ARM.Collect$$rtentry$$00000009  c_w.l(rtentry2.o)
    0x08000206   0x00000004   Code   RO         2393    .ARM.Collect$$rtentry$$0000000A  c_w.l(rtentry2.o)
    0x0800020a   0x00000000   Code   RO         2395    .ARM.Collect$$rtentry$$0000000C  c_w.l(rtentry2.o)
    0x0800020a   0x00000008   Code   RO         2396    .ARM.Collect$$rtentry$$0000000D  c_w.l(rtentry2.o)
    0x08000212   0x00000002   Code   RO         2438    .ARM.Collect$$rtexit$$00000000  c_w.l(rtexit.o)
    0x08000214   0x00000000   Code   RO         2486    .ARM.Collect$$rtexit$$00000002  c_w.l(rtexit2.o)
    0x08000214   0x00000004   Code   RO         2487    .ARM.Collect$$rtexit$$00000003  c_w.l(rtexit2.o)
    0x08000218   0x00000006   Code   RO         2488    .ARM.Collect$$rtexit$$00000004  c_w.l(rtexit2.o)
    0x0800021e   0x0000001a   Code   RO            1    .text               stm32f10x_it.o
    0x08000238   0x000001c8   Code   RO           80    .text               system_stm32f10x.o
    0x08000400   0x00000254   Code   RO           98    .text               lcd19264.o
    0x08000654   0x000002f0   Code   RO          146    .text               keyboard.o
    0x08000944   0x000000e8   Code   RO          165    .text               timer.o
    0x08000a2c   0x000000e0   Code   RO          275    .text               adc.o
    0x08000b0c   0x0000004a   Code   RO          290    .text               dma.o
    0x08000b56   0x00000002   PAD
    0x08000b58   0x00000230   Code   RO          321    .text               remote.o
    0x08000d88   0x00000350   Code   RO          339    .text               flash.o
    0x080010d8   0x0000012c   Code   RO          360    .text               spi.o
    0x08001204   0x00000894   Code   RO          372    .text               fsmc.o
    0x08001a98   0x000000c4   Code   RO          467    .text               delay.o
    0x08001b5c   0x0000000c   Code   RO          481    .text               sys.o
    0x08001b68   0x00000224   Code   RO          493    .text               usart.o
    0x08001d8c   0x00000040   Code   RO          530    .text               startup_stm32f10x_hd.o
    0x08001dcc   0x000000dc   Code   RO          534    .text               misc.o
    0x08001ea8   0x00000618   Code   RO          546    .text               stm32f10x_fsmc.o
    0x080024c0   0x00000358   Code   RO          558    .text               stm32f10x_gpio.o
    0x08002818   0x000003a0   Code   RO          570    .text               stm32f10x_rcc.o
    0x08002bb8   0x0000040c   Code   RO          584    .text               stm32f10x_usart.o
    0x08002fc4   0x00000dae   Code   RO          596    .text               stm32f10x_tim.o
    0x08003d72   0x00000002   PAD
    0x08003d74   0x0000043c   Code   RO          608    .text               stm32f10x_adc.o
    0x080041b0   0x00000250   Code   RO          620    .text               stm32f10x_dma.o
    0x08004400   0x00000310   Code   RO          632    .text               stm32f10x_spi.o
    0x08004710   0x000081b4   Code   RO          644    .text               axis4.o
    0x0800c8c4   0x00000018   Code   RO          709    .text               usb_mass.o
    0x0800c8dc   0x00000002   Code   RO         2168    .text               c_w.l(use_no_semi_2.o)
    0x0800c8de   0x00000002   PAD
    0x0800c8e0   0x00000018   Code   RO         2172    .text               c_w.l(noretval__2printf.o)
    0x0800c8f8   0x00000052   Code   RO         2176    .text               c_w.l(_printf_pad.o)
    0x0800c94a   0x00000002   PAD
    0x0800c94c   0x00000078   Code   RO         2178    .text               c_w.l(_printf_dec.o)
    0x0800c9c4   0x0000005c   Code   RO         2183    .text               c_w.l(_printf_hex_int.o)
    0x0800ca20   0x0000013c   Code   RO         2213    .text               c_w.l(__printf_flags_wp.o)
    0x0800cb5c   0x0000008a   Code   RO         2224    .text               c_w.l(rt_memcpy_v6.o)
    0x0800cbe6   0x00000044   Code   RO         2226    .text               c_w.l(rt_memclr.o)
    0x0800cc2a   0x00000006   Code   RO         2228    .text               c_w.l(heapauxi.o)
    0x0800cc30   0x00000002   Code   RO         2338    .text               c_w.l(use_no_semi.o)
    0x0800cc32   0x00000016   Code   RO         2341    .text               c_w.l(_rserrno.o)
    0x0800cc48   0x000000b8   Code   RO         2343    .text               c_w.l(_printf_intcommon.o)
    0x0800cd00   0x00000024   Code   RO         2345    .text               c_w.l(_printf_char_file.o)
    0x0800cd24   0x00000064   Code   RO         2348    .text               c_w.l(rt_memcpy_w.o)
    0x0800cd88   0x0000004e   Code   RO         2350    .text               c_w.l(rt_memclr_w.o)
    0x0800cdd6   0x00000002   PAD
    0x0800cdd8   0x00000008   Code   RO         2407    .text               c_w.l(rt_errno_addr_intlibspace.o)
    0x0800cde0   0x00000030   Code   RO         2409    .text               c_w.l(_printf_char_common.o)
    0x0800ce10   0x00000008   Code   RO         2411    .text               c_w.l(ferror.o)
    0x0800ce18   0x00000008   Code   RO         2421    .text               c_w.l(libspace.o)
    0x0800ce20   0x0000004a   Code   RO         2424    .text               c_w.l(sys_stackheap_outer.o)
    0x0800ce6a   0x0000000c   Code   RO         2428    .text               c_w.l(exit.o)
    0x0800ce76   0x00000002   PAD
    0x0800ce78   0x00000008   Code   RO         2495    .text               c_w.l(rt_fp_status_addr_intlibspace.o)
    0x0800ce80   0x00000040   Code   RO         1885    i.Bot_Abort         mass_lib.lib(usb_bot.o)
    0x0800cec0   0x0000000c   Code   RO         1488    i.ByteSwap          mass_lib.lib(usb_regs.o)
    0x0800cecc   0x000002c4   Code   RO         1886    i.CBW_Decode        mass_lib.lib(usb_bot.o)
    0x0800d190   0x000000b4   Code   RO          771    i.CTR_HP            mass_lib.lib(usb_int.o)
    0x0800d244   0x00000264   Code   RO          772    i.CTR_LP            mass_lib.lib(usb_int.o)
    0x0800d4a8   0x0000002c   Code   RO         1489    i.ClearDTOG_RX      mass_lib.lib(usb_regs.o)
    0x0800d4d4   0x0000002c   Code   RO         1490    i.ClearDTOG_TX      mass_lib.lib(usb_regs.o)
    0x0800d500   0x00000020   Code   RO         1495    i.Clear_Status_Out  mass_lib.lib(usb_regs.o)
    0x0800d520   0x000000c0   Code   RO         1089    i.DataStageIn       mass_lib.lib(usb_core.o)
    0x0800d5e0   0x000000bc   Code   RO         1090    i.DataStageOut      mass_lib.lib(usb_core.o)
    0x0800d69c   0x0000028c   Code   RO         1091    i.Data_Setup0       mass_lib.lib(usb_core.o)
    0x0800d928   0x00000008   Code   RO         1328    i.EP1_IN_Callback   mass_lib.lib(usb_endp.o)
    0x0800d930   0x00000008   Code   RO         1329    i.EP2_OUT_Callback  mass_lib.lib(usb_endp.o)
    0x0800d938   0x00000020   Code   RO         1507    i.GetEPRxAddr       mass_lib.lib(usb_regs.o)
    0x0800d958   0x00000024   Code   RO         1508    i.GetEPRxCount      mass_lib.lib(usb_regs.o)
    0x0800d97c   0x00000020   Code   RO         1510    i.GetEPTxAddr       mass_lib.lib(usb_regs.o)
    0x0800d99c   0x0000001c   Code   RO         1349    i.Get_Max_Lun       mass_lib.lib(usb_prop.o)
    0x0800d9b8   0x00000048   Code   RO         1232    i.Get_SerialNum     mass_lib.lib(hw_config.o)
    0x0800da00   0x00000070   Code   RO         1092    i.In0_Process       mass_lib.lib(usb_core.o)
    0x0800da70   0x00000030   Code   RO         1234    i.Led_Config        mass_lib.lib(hw_config.o)
    0x0800daa0   0x00000014   Code   RO         1235    i.Led_RW_OFF        mass_lib.lib(hw_config.o)
    0x0800dab4   0x00000014   Code   RO         1236    i.Led_RW_ON         mass_lib.lib(hw_config.o)
    0x0800dac8   0x0000000a   Code   RO         1237    i.MAL_Config        mass_lib.lib(hw_config.o)
    0x0800dad2   0x0000001e   Code   RO         1848    i.MAL_GetStatus     mass_lib.lib(mass_mal.o)
    0x0800daf0   0x00000044   Code   RO         1849    i.MAL_Init          mass_lib.lib(mass_mal.o)
    0x0800db34   0x0000002c   Code   RO         1850    i.MAL_Read          mass_lib.lib(mass_mal.o)
    0x0800db60   0x00000026   Code   RO         1851    i.MAL_Write         mass_lib.lib(mass_mal.o)
    0x0800db86   0x00000002   PAD
    0x0800db88   0x00000060   Code   RO         1350    i.MASS_Data_Setup   mass_lib.lib(usb_prop.o)
    0x0800dbe8   0x00000014   Code   RO         1351    i.MASS_GetConfigDescriptor  mass_lib.lib(usb_prop.o)
    0x0800dbfc   0x00000014   Code   RO         1352    i.MASS_GetDeviceDescriptor  mass_lib.lib(usb_prop.o)
    0x0800dc10   0x00000028   Code   RO         1353    i.MASS_GetStringDescriptor  mass_lib.lib(usb_prop.o)
    0x0800dc38   0x00000016   Code   RO         1354    i.MASS_Get_Interface_Setting  mass_lib.lib(usb_prop.o)
    0x0800dc4e   0x00000002   PAD
    0x0800dc50   0x0000005c   Code   RO         1355    i.MASS_NoData_Setup  mass_lib.lib(usb_prop.o)
    0x0800dcac   0x000000ec   Code   RO         1356    i.MASS_Reset        mass_lib.lib(usb_prop.o)
    0x0800dd98   0x00000002   Code   RO         1357    i.MASS_Status_In    mass_lib.lib(usb_prop.o)
    0x0800dd9a   0x00000002   Code   RO         1358    i.MASS_Status_Out   mass_lib.lib(usb_prop.o)
    0x0800dd9c   0x00000044   Code   RO         1359    i.MASS_init         mass_lib.lib(usb_prop.o)
    0x0800dde0   0x0000001c   Code   RO         1360    i.Mass_Storage_ClearFeature  mass_lib.lib(usb_prop.o)
    0x0800ddfc   0x00000074   Code   RO         1887    i.Mass_Storage_In   mass_lib.lib(usb_bot.o)
    0x0800de70   0x00000098   Code   RO         1888    i.Mass_Storage_Out  mass_lib.lib(usb_bot.o)
    0x0800df08   0x00000030   Code   RO         1361    i.Mass_Storage_SetConfiguration  mass_lib.lib(usb_prop.o)
    0x0800df38   0x0000000c   Code   RO         1362    i.Mass_Storage_SetDeviceAddress  mass_lib.lib(usb_prop.o)
    0x0800df44   0x00000002   Code   RO         1093    i.NOP_Process       mass_lib.lib(usb_core.o)
    0x0800df46   0x00000002   PAD
    0x0800df48   0x00000140   Code   RO         1094    i.NoData_Setup0     mass_lib.lib(usb_core.o)
    0x0800e088   0x00000050   Code   RO         1095    i.Out0_Process      mass_lib.lib(usb_core.o)
    0x0800e0d8   0x00000028   Code   RO         1470    i.PMAToUserBufferCopy  mass_lib.lib(usb_mem.o)
    0x0800e100   0x00000048   Code   RO         1096    i.Post0_Process     mass_lib.lib(usb_core.o)
    0x0800e148   0x00000040   Code   RO         1950    i.PowerOn           mass_lib.lib(usb_pwr.o)
    0x0800e188   0x0000010c   Code   RO         2097    i.Read_Memory       mass_lib.lib(memory.o)
    0x0800e294   0x0000008c   Code   RO         1991    i.SCSI_Address_Management  mass_lib.lib(usb_scsi.o)
    0x0800e320   0x00000030   Code   RO         1992    i.SCSI_Format_Cmd   mass_lib.lib(usb_scsi.o)
    0x0800e350   0x0000005c   Code   RO         1993    i.SCSI_Inquiry_Cmd  mass_lib.lib(usb_scsi.o)
    0x0800e3ac   0x00000044   Code   RO         1994    i.SCSI_Invalid_Cmd  mass_lib.lib(usb_scsi.o)
    0x0800e3f0   0x00000014   Code   RO         1995    i.SCSI_ModeSense10_Cmd  mass_lib.lib(usb_scsi.o)
    0x0800e404   0x00000014   Code   RO         1996    i.SCSI_ModeSense6_Cmd  mass_lib.lib(usb_scsi.o)
    0x0800e418   0x00000078   Code   RO         1997    i.SCSI_Read10_Cmd   mass_lib.lib(usb_scsi.o)
    0x0800e490   0x0000009c   Code   RO         1998    i.SCSI_ReadCapacity10_Cmd  mass_lib.lib(usb_scsi.o)
    0x0800e52c   0x00000088   Code   RO         1999    i.SCSI_ReadFormatCapacity_Cmd  mass_lib.lib(usb_scsi.o)
    0x0800e5b4   0x00000028   Code   RO         2000    i.SCSI_RequestSense_Cmd  mass_lib.lib(usb_scsi.o)
    0x0800e5dc   0x0000000e   Code   RO         2001    i.SCSI_Start_Stop_Unit_Cmd  mass_lib.lib(usb_scsi.o)
    0x0800e5ea   0x00000002   PAD
    0x0800e5ec   0x00000038   Code   RO         2002    i.SCSI_TestUnitReady_Cmd  mass_lib.lib(usb_scsi.o)
    0x0800e624   0x00000040   Code   RO         2004    i.SCSI_Verify10_Cmd  mass_lib.lib(usb_scsi.o)
    0x0800e664   0x00000078   Code   RO         2005    i.SCSI_Write10_Cmd  mass_lib.lib(usb_scsi.o)
    0x0800e6dc   0x00000010   Code   RO         1518    i.SetBTABLE         mass_lib.lib(usb_regs.o)
    0x0800e6ec   0x00000048   Code   RO         1097    i.SetDeviceAddress  mass_lib.lib(usb_core.o)
    0x0800e734   0x00000024   Code   RO         1532    i.SetEPRxAddr       mass_lib.lib(usb_regs.o)
    0x0800e758   0x0000004c   Code   RO         1533    i.SetEPRxCount      mass_lib.lib(usb_regs.o)
    0x0800e7a4   0x00000038   Code   RO         1534    i.SetEPRxStatus     mass_lib.lib(usb_regs.o)
    0x0800e7dc   0x0000002c   Code   RO         1535    i.SetEPRxValid      mass_lib.lib(usb_regs.o)
    0x0800e808   0x00000020   Code   RO         1536    i.SetEPTxAddr       mass_lib.lib(usb_regs.o)
    0x0800e828   0x0000001c   Code   RO         1537    i.SetEPTxCount      mass_lib.lib(usb_regs.o)
    0x0800e844   0x00000038   Code   RO         1538    i.SetEPTxStatus     mass_lib.lib(usb_regs.o)
    0x0800e87c   0x0000001c   Code   RO         1540    i.SetEPType         mass_lib.lib(usb_regs.o)
    0x0800e898   0x00000044   Code   RO         1889    i.Set_CSW           mass_lib.lib(usb_bot.o)
    0x0800e8dc   0x0000000c   Code   RO         2006    i.Set_Scsi_Sense_Data  mass_lib.lib(usb_scsi.o)
    0x0800e8e8   0x0000000c   Code   RO         1238    i.Set_System        mass_lib.lib(hw_config.o)
    0x0800e8f4   0x00000012   Code   RO         1239    i.Set_USBClock      mass_lib.lib(hw_config.o)
    0x0800e906   0x00000002   PAD
    0x0800e908   0x000000b8   Code   RO         1098    i.Setup0_Process    mass_lib.lib(usb_core.o)
    0x0800e9c0   0x00000148   Code   RO         1099    i.Standard_ClearFeature  mass_lib.lib(usb_core.o)
    0x0800eb08   0x0000002c   Code   RO         1100    i.Standard_GetConfiguration  mass_lib.lib(usb_core.o)
    0x0800eb34   0x00000024   Code   RO         1101    i.Standard_GetDescriptorData  mass_lib.lib(usb_core.o)
    0x0800eb58   0x0000002c   Code   RO         1102    i.Standard_GetInterface  mass_lib.lib(usb_core.o)
    0x0800eb84   0x000000f8   Code   RO         1103    i.Standard_GetStatus  mass_lib.lib(usb_core.o)
    0x0800ec7c   0x00000048   Code   RO         1104    i.Standard_SetConfiguration  mass_lib.lib(usb_core.o)
    0x0800ecc4   0x00000028   Code   RO         1105    i.Standard_SetDeviceFeature  mass_lib.lib(usb_core.o)
    0x0800ecec   0x000000b8   Code   RO         1106    i.Standard_SetEndPointFeature  mass_lib.lib(usb_core.o)
    0x0800eda4   0x0000006c   Code   RO         1107    i.Standard_SetInterface  mass_lib.lib(usb_core.o)
    0x0800ee10   0x00000040   Code   RO         1890    i.Transfer_Data_Request  mass_lib.lib(usb_bot.o)
    0x0800ee50   0x00000024   Code   RO         1240    i.USB_Cable_Config  mass_lib.lib(hw_config.o)
    0x0800ee74   0x0000002c   Code   RO         1242    i.USB_Disconnect_Config  mass_lib.lib(hw_config.o)
    0x0800eea0   0x0000003c   Code   RO         1208    i.USB_Init          mass_lib.lib(usb_init.o)
    0x0800eedc   0x00000038   Code   RO         1243    i.USB_Interrupts_Config  mass_lib.lib(hw_config.o)
    0x0800ef14   0x00000050   Code   RO          912    i.USB_Istr          mass_lib.lib(usb_istr.o)
    0x0800ef64   0x0000002e   Code   RO         2144    i.USB_SIL_Write     mass_lib.lib(usb_sil.o)
    0x0800ef92   0x00000018   Code   RO          945    i.USB_cable         mass_lib.lib(usb_main.o)
    0x0800efaa   0x00000002   PAD
    0x0800efac   0x00000038   Code   RO         1471    i.UserToPMABufferCopy  mass_lib.lib(usb_mem.o)
    0x0800efe4   0x00000130   Code   RO         2098    i.Write_Memory      mass_lib.lib(memory.o)
    0x0800f114   0x00000028   Code   RO         2374    i.__ARM_fpclassify  m_ws.l(fpclassify.o)
    0x0800f13c   0x00000384   Code   RO         2378    i.__ieee754_rem_pio2  m_ws.l(rred.o)
    0x0800f4c0   0x000000fc   Code   RO         2369    i.__kernel_cos      m_ws.l(cos_i.o)
    0x0800f5bc   0x000000aa   Code   RO         2376    i.__kernel_poly     m_ws.l(poly.o)
    0x0800f666   0x00000002   PAD
    0x0800f668   0x000000ec   Code   RO         2383    i.__kernel_sin      m_ws.l(sin_i.o)
    0x0800f754   0x00000010   Code   RO         2372    i.__mathlib_dbl_underflow  m_ws.l(dunder.o)
    0x0800f764   0x0000000e   Code   RO         2211    i._is_digit         c_w.l(__printf_wp.o)
    0x0800f772   0x00000002   PAD
    0x0800f774   0x0000027c   Code   RO         2295    i.asin              m_ws.l(asin.o)
    0x0800f9f0   0x00000224   Code   RO         2305    i.atan              m_ws.l(atan.o)
    0x0800fc14   0x000000ac   Code   RO         2315    i.cos               m_ws.l(cos.o)
    0x0800fcc0   0x000000b0   Code   RO         2323    i.sin               m_ws.l(sin.o)
    0x0800fd70   0x0000004c   Code   RO         2331    i.sqrt              m_ws.l(sqrt.o)
    0x0800fdbc   0x00000062   Code   RO         2232    x$fpl$d2f           fz_ws.l(d2f.o)
    0x0800fe1e   0x00000002   PAD
    0x0800fe20   0x00000150   Code   RO         2234    x$fpl$dadd          fz_ws.l(daddsub_clz.o)
    0x0800ff70   0x00000010   Code   RO         2415    x$fpl$dcheck1       fz_ws.l(dcheck1.o)
    0x0800ff80   0x00000018   Code   RO         2352    x$fpl$dcmpinf       fz_ws.l(dcmpi.o)
    0x0800ff98   0x000002b0   Code   RO         2241    x$fpl$ddiv          fz_ws.l(ddiv.o)
    0x08010248   0x0000005e   Code   RO         2417    x$fpl$dfix          fz_ws.l(dfix.o)
    0x080102a6   0x00000002   PAD
    0x080102a8   0x0000005a   Code   RO         2244    x$fpl$dfixu         fz_ws.l(dfixu.o)
    0x08010302   0x0000002e   Code   RO         2249    x$fpl$dflt          fz_ws.l(dflt_clz.o)
    0x08010330   0x00000026   Code   RO         2248    x$fpl$dfltu         fz_ws.l(dflt_clz.o)
    0x08010356   0x00000002   PAD
    0x08010358   0x00000078   Code   RO         2254    x$fpl$dleqf         fz_ws.l(dleqf.o)
    0x080103d0   0x00000154   Code   RO         2256    x$fpl$dmul          fz_ws.l(dmul.o)
    0x08010524   0x0000009c   Code   RO         2354    x$fpl$dnaninf       fz_ws.l(dnaninf.o)
    0x080105c0   0x0000000c   Code   RO         2356    x$fpl$dretinf       fz_ws.l(dretinf.o)
    0x080105cc   0x0000006c   Code   RO         2258    x$fpl$drleqf        fz_ws.l(drleqf.o)
    0x08010638   0x00000016   Code   RO         2235    x$fpl$drsb          fz_ws.l(daddsub_clz.o)
    0x0801064e   0x00000002   PAD
    0x08010650   0x000001cc   Code   RO         2358    x$fpl$dsqrt         fz_ws.l(dsqrt_noumaal.o)
    0x0801081c   0x000001d4   Code   RO         2236    x$fpl$dsub          fz_ws.l(daddsub_clz.o)
    0x080109f0   0x00000056   Code   RO         2260    x$fpl$f2d           fz_ws.l(f2d.o)
    0x08010a46   0x00000002   PAD
    0x08010a48   0x000000c4   Code   RO         2262    x$fpl$fadd          fz_ws.l(faddsub_clz.o)
    0x08010b0c   0x00000018   Code   RO         2360    x$fpl$fcmpinf       fz_ws.l(fcmpi.o)
    0x08010b24   0x00000184   Code   RO         2269    x$fpl$fdiv          fz_ws.l(fdiv.o)
    0x08010ca8   0x00000068   Code   RO         2272    x$fpl$feqf          fz_ws.l(feqf.o)
    0x08010d10   0x00000036   Code   RO         2274    x$fpl$ffix          fz_ws.l(ffix.o)
    0x08010d46   0x00000002   PAD
    0x08010d48   0x0000003e   Code   RO         2278    x$fpl$ffixu         fz_ws.l(ffixu.o)
    0x08010d86   0x00000002   PAD
    0x08010d88   0x00000030   Code   RO         2283    x$fpl$fflt          fz_ws.l(fflt_clz.o)
    0x08010db8   0x00000026   Code   RO         2282    x$fpl$ffltu         fz_ws.l(fflt_clz.o)
    0x08010dde   0x00000002   PAD
    0x08010de0   0x00000068   Code   RO         2288    x$fpl$fleqf         fz_ws.l(fleqf.o)
    0x08010e48   0x00000102   Code   RO         2290    x$fpl$fmul          fz_ws.l(fmul.o)
    0x08010f4a   0x0000008c   Code   RO         2362    x$fpl$fnaninf       fz_ws.l(fnaninf.o)
    0x08010fd6   0x0000000e   Code   RO         2481    x$fpl$fpinit        fz_ws.l(fpinit.o)
    0x08010fe4   0x0000000a   Code   RO         2364    x$fpl$fretinf       fz_ws.l(fretinf.o)
    0x08010fee   0x00000062   Code   RO         2292    x$fpl$frleqf        fz_ws.l(frleqf.o)
    0x08011050   0x00000014   Code   RO         2263    x$fpl$frsb          fz_ws.l(faddsub_clz.o)
    0x08011064   0x000000ea   Code   RO         2264    x$fpl$fsub          fz_ws.l(faddsub_clz.o)
    0x0801114e   0x00000064   Code   RO         2436    x$fpl$retnan        fz_ws.l(retnan.o)
    0x080111b2   0x0000005c   Code   RO         2366    x$fpl$scalbn        fz_ws.l(scalbn.o)
    0x0801120e   0x00000030   Code   RO         2483    x$fpl$trapveneer    fz_ws.l(trapv.o)
    0x0801123e   0x00000000   Code   RO         2368    x$fpl$usenofp       fz_ws.l(usenofp.o)
    0x0801123e   0x00000600   Data   RO          100    .constdata          lcd19264.o
    0x0801183e   0x00000019   Data   RO          147    .constdata          keyboard.o
    0x08011857   0x00000001   PAD
    0x08011858   0x00000042   Data   RO          373    .constdata          fsmc.o
    0x0801189a   0x00000b90   Data   RO          646    .constdata          axis4.o
    0x0801242a   0x00000092   Data   RO         1936    .constdata          mass_lib.lib(usb_desc.o)
    0x080124bc   0x00000028   Data   RO         2184    .constdata          c_w.l(_printf_hex_int.o)
    0x080124e4   0x00000011   Data   RO         2214    .constdata          c_w.l(__printf_flags_wp.o)
    0x080124f5   0x00000003   PAD
    0x080124f8   0x00000050   Data   RO         2296    .constdata          m_ws.l(asin.o)
    0x08012548   0x00000098   Data   RO         2306    .constdata          m_ws.l(atan.o)
    0x080125e0   0x00000030   Data   RO         2370    .constdata          m_ws.l(cos_i.o)
    0x08012610   0x000000c8   Data   RO         2380    .constdata          m_ws.l(rred.o)
    0x080126d8   0x00000028   Data   RO         2384    .constdata          m_ws.l(sin_i.o)
    0x08012700   0x00000020   Data   RO         2560    Region$$Table       anon$$obj.o


    Execution Region RW_IRAM1 (Base: 0x20000000, Size: 0x0000ad00, Max: 0x0000c000, ABSOLUTE, COMPRESSED[0x00000118])

    Base Addr    Size         Type   Attr      Idx    E Section Name        Object

    0x20000000   0x00000014   Data   RW           81    .data               system_stm32f10x.o
    0x20000014   0x0000004c   Data   RW          148    .data               keyboard.o
    0x20000060   0x0000000a   Data   RW          322    .data               remote.o
    0x2000006a   0x00000002   PAD
    0x2000006c   0x00000004   Data   RW          340    .data               flash.o
    0x20000070   0x0000003a   Data   RW          374    .data               fsmc.o
    0x200000aa   0x00000004   Data   RW          468    .data               delay.o
    0x200000ae   0x00000002   PAD
    0x200000b0   0x00000008   Data   RW          495    .data               usart.o
    0x200000b8   0x00000014   Data   RW          571    .data               stm32f10x_rcc.o
    0x200000cc   0x00000211   Data   RW          647    .data               axis4.o
    0x200002dd   0x00000001   PAD
    0x200002de   0x00000004   Data   RW          773    .data               mass_lib.lib(usb_int.o)
    0x200002e2   0x00000002   PAD
    0x200002e4   0x0000003e   Data   RW          913    .data               mass_lib.lib(usb_istr.o)
    0x20000322   0x00000004   Data   RW         1108    .data               mass_lib.lib(usb_core.o)
    0x20000326   0x00000002   PAD
    0x20000328   0x00000014   Data   RW         1210    .data               mass_lib.lib(usb_init.o)
    0x2000033c   0x00000090   Data   RW         1363    .data               mass_lib.lib(usb_prop.o)
    0x200003cc   0x00000010   Data   RW         1852    .data               mass_lib.lib(mass_mal.o)
    0x200003dc   0x0000000c   Data   RW         1892    .data               mass_lib.lib(usb_bot.o)
    0x200003e8   0x0000001a   Data   RW         1937    .data               mass_lib.lib(usb_desc.o)
    0x20000402   0x00000002   PAD
    0x20000404   0x00000007   Data   RW         1954    .data               mass_lib.lib(usb_pwr.o)
    0x2000040b   0x00000001   PAD
    0x2000040c   0x00000024   Data   RW         2100    .data               mass_lib.lib(memory.o)
    0x20000430   0x000000a3   Data   RW         2130    .data               mass_lib.lib(scsi_data.o)
    0x200004d3   0x00000001   PAD
    0x200004d4   0x00000600   Zero   RW           99    .bss                lcd19264.o
    0x20000ad4   0x00000064   Zero   RW          494    .bss                usart.o
    0x20000b38   0x000000d6   Zero   RW          645    .bss                axis4.o
    0x20000c0e   0x00000002   PAD
    0x20000c10   0x0000001c   Zero   RW         1209    .bss                mass_lib.lib(usb_init.o)
    0x20000c2c   0x00000070   Zero   RW         1891    .bss                mass_lib.lib(usb_bot.o)
    0x20000c9c   0x00001000   Zero   RW         2099    .bss                mass_lib.lib(memory.o)
    0x20001c9c   0x00000060   Zero   RW         2422    .bss                c_w.l(libspace.o)
    0x20001cfc   0x00000004   PAD
    0x20001d00   0x00001000   Zero   RW          528    HEAP                startup_stm32f10x_hd.o
    0x20002d00   0x00008000   Zero   RW          527    STACK               startup_stm32f10x_hd.o


==============================================================================

Image component sizes


      Code (inc. data)   RO Data    RW Data    ZI Data      Debug   Object Name

       224         10          0          0          0        575   adc.o
     33204       3660       2960        529        214      34187   axis4.o
         0          0          0          0          0         32   core_cm3.o
       196         16          0          4          0        939   delay.o
        74          0          0          0          0        953   dma.o
       848         10          0          4          0       4884   flash.o
      2196        700         66         58          0     223615   fsmc.o
       752         42         25         76          0       3102   keyboard.o
       596         18       1536          0       1536     216353   lcd19264.o
       220         20          0          0          0       1697   misc.o
       560         26          0         10          0       1387   remote.o
       300         14          0          0          0        915   spi.o
        64         26        304          0      36864        744   startup_stm32f10x_hd.o
      1084         26          0          0          0      10917   stm32f10x_adc.o
       592          8          0          0          0       4262   stm32f10x_dma.o
      1560         54          0          0          0       5275   stm32f10x_fsmc.o
       856         40          0          0          0       5633   stm32f10x_gpio.o
        26          0          0          0          0      73110   stm32f10x_it.o
       928         44          0         20          0       8760   stm32f10x_rcc.o
       784         12          0          0          0       6534   stm32f10x_spi.o
      3502         86          0          0          0      22800   stm32f10x_tim.o
      1036         20          0          0          0       8376   stm32f10x_usart.o
        12          0          0          0          0        401   sys.o
       456         36          0         20          0       1595   system_stm32f10x.o
       232         34          0          0          0     225792   timer.o
       548         22          0          8        100       3219   usart.o
        24          0          0          0          0        698   usb_mass.o

    ----------------------------------------------------------------------
     50878       4924       4924        734      38716     866755   Object Totals
         0          0         32          0          0          0   (incl. Generated)
         4          0          1          5          2          0   (incl. Padding)

    ----------------------------------------------------------------------

      Code (inc. data)   RO Data    RW Data    ZI Data      Debug   Library Member Name

        90          0          0          0          0          0   __dczerorl2.o
         8          0          0          0          0         68   __main.o
       316          6         17          0          0         92   __printf_flags_wp.o
        14          0          0          0          0         68   __printf_wp.o
        52          8          0          0          0          0   __scatter.o
        28          0          0          0          0          0   __scatter_zi.o
        48          6          0          0          0         96   _printf_char_common.o
        36          4          0          0          0         80   _printf_char_file.o
         6          0          0          0          0          0   _printf_d.o
       120         18          0          0          0         92   _printf_dec.o
        92          4         40          0          0         88   _printf_hex_int.o
       184          0          0          0          0         88   _printf_intcommon.o
        82          0          0          0          0        108   _printf_pad.o
         0          0          0          0          0          0   _printf_percent.o
         4          0          0          0          0          0   _printf_percent_end.o
         6          0          0          0          0          0   _printf_x.o
        22          0          0          0          0        100   _rserrno.o
        12          0          0          0          0         72   exit.o
         8          0          0          0          0         68   ferror.o
         6          0          0          0          0        152   heapauxi.o
         6          0          0          0          0          0   libinit.o
         2          0          0          0          0          0   libinit2.o
         2          0          0          0          0          0   libshutdown.o
         2          0          0          0          0          0   libshutdown2.o
         8          4          0          0         96         68   libspace.o
        24          4          0          0          0         84   noretval__2printf.o
         8          4          0          0          0         68   rt_errno_addr_intlibspace.o
         8          4          0          0          0         68   rt_fp_status_addr_intlibspace.o
        68          0          0          0          0         68   rt_memclr.o
        78          0          0          0          0         80   rt_memclr_w.o
       138          0          0          0          0         68   rt_memcpy_v6.o
       100          0          0          0          0         80   rt_memcpy_w.o
         0          0          0          0          0          0   rtentry.o
        12          0          0          0          0          0   rtentry2.o
         6          0          0          0          0          0   rtentry4.o
         2          0          0          0          0          0   rtexit.o
        10          0          0          0          0          0   rtexit2.o
        74          0          0          0          0         80   sys_stackheap_outer.o
         2          0          0          0          0         68   use_no_semi.o
         2          0          0          0          0         68   use_no_semi_2.o
        98          4          0          0          0         92   d2f.o
       826         16          0          0          0        356   daddsub_clz.o
        16          4          0          0          0         68   dcheck1.o
        24          0          0          0          0         68   dcmpi.o
       688        140          0          0          0        212   ddiv.o
        94          4          0          0          0         92   dfix.o
        90          4          0          0          0         92   dfixu.o
        84          0          0          0          0        136   dflt_clz.o
       120          4          0          0          0         92   dleqf.o
       340         12          0          0          0        104   dmul.o
       156          4          0          0          0         92   dnaninf.o
        12          0          0          0          0         68   dretinf.o
       108          0          0          0          0         80   drleqf.o
       460         56          0          0          0        120   dsqrt_noumaal.o
        86          4          0          0          0         84   f2d.o
       450          8          0          0          0        236   faddsub_clz.o
        24          0          0          0          0         68   fcmpi.o
       388         76          0          0          0         96   fdiv.o
       104          4          0          0          0         84   feqf.o
        54          4          0          0          0         84   ffix.o
        62          4          0          0          0         84   ffixu.o
        86          0          0          0          0        136   fflt_clz.o
       104          4          0          0          0         84   fleqf.o
       258          4          0          0          0         84   fmul.o
       140          4          0          0          0         84   fnaninf.o
        14          0          0          0          0         76   fpinit.o
        10          0          0          0          0         68   fretinf.o
        98          0          0          0          0         68   frleqf.o
       100          0          0          0          0         68   retnan.o
        92          0          0          0          0         68   scalbn.o
        48          0          0          0          0         68   trapv.o
         0          0          0          0          0          0   usenofp.o
       636         52         80          0          0        176   asin.o
       548         70        152          0          0        128   atan.o
       172          8          0          0          0        116   cos.o
       252         22         48          0          0        128   cos_i.o
        16          6          0          0          0         68   dunder.o
        40          0          0          0          0         68   fpclassify.o
       170          0          0          0          0         96   poly.o
       900         72        200          0          0        140   rred.o
       176         10          0          0          0        120   sin.o
       236         12         40          0          0        132   sin_i.o
        76          0          0          0          0         84   sqrt.o
       336         36          0          0          0       5002   hw_config.o
       180         12          0         16          0       3352   mass_mal.o
       572         80          0         36       4096       3624   memory.o
         0          0          0        163          0       1158   scsi_data.o
      1172        106          0         12        112       4535   usb_bot.o
      2978        282          0          4          0      14775   usb_core.o
         0          0        146         26          0        984   usb_desc.o
        16          0          0          0          0       1873   usb_endp.o
        60         24          0         20         28       4162   usb_init.o
       792         50          0          4          0       5077   usb_int.o
        80         18          0         62          0       4204   usb_istr.o
        24          0          0          0          0     216484   usb_main.o
        96         10          0          0          0       1820   usb_mem.o
       714        128          0        144          0      11466   usb_prop.o
        64         10          0          7          0       2053   usb_pwr.o
       604        106          0          0          0       9368   usb_regs.o
      1106        132          0          0          0       9531   usb_scsi.o
        46          0          0          0          0       1028   usb_sil.o

    ----------------------------------------------------------------------
     19024       1668        726        502       4336     306936   Library Totals
        42          0          3          8          4          0   (incl. Padding)

    ----------------------------------------------------------------------

      Code (inc. data)   RO Data    RW Data    ZI Data      Debug   Library Name

      1686         62         57          0         96       1972   c_w.l
      5234        360          0          0          0       3212   fz_ws.l
      3222        252        520          0          0       1256   m_ws.l
      8840        994        146        494       4236     300496   mass_lib.lib

    ----------------------------------------------------------------------
     19024       1668        726        502       4336     306936   Library Totals

    ----------------------------------------------------------------------

==============================================================================


      Code (inc. data)   RO Data    RW Data    ZI Data      Debug   

     69902       6592       5650       1236      43052    1162615   Grand Totals
     69902       6592       5650        280      43052    1162615   ELF Image Totals (compressed)
     69902       6592       5650        280          0          0   ROM Totals

==============================================================================

    Total RO  Size (Code + RO Data)                75552 (  73.78kB)
    Total RW  Size (RW Data + ZI Data)             44288 (  43.25kB)
    Total ROM Size (Code + RO Data + RW Data)      75832 (  74.05kB)

==============================================================================

